:100000000C942A000C943C000C943C000C943C0092
:100010000C943C000C943C000C943C000C943C0070
:100020000C943C000C943C000C943C000C943C0060
:100030000C9493050C943C000C943C000C943C00F4
:100040000C943C000C943C000C943C000C943C0040
:100050000C943C0011241FBECFE5D8E0DEBFCDBF1D
:1000600010E0A0E6B0E001C01D92A336B107E1F7B1
:100070000E94C6050C944C060C940000DF93CF93AD
:10008000CDB7DEB728970FB6F894DEBF0FBECDBF51
:100090008A836B834C8319828B81883008F0F4C08B
:1000A0008C81882309F077C08A81282F30E0388737
:1000B0002F838F8198858130910559F12F81388563
:1000C000223031052CF48F819885009769F060C04B
:1000D0002F8138852230310589F18F8198858330D1
:1000E000910509F440C054C0AAE3B0E0EAE3F0E0AF
:1000F0008081482F8B81282F30E081E090E0022E14
:1001000002C0880F991F0A94E2F7809584238C938C
:10011000BDC0A7E3B0E0E7E3F0E08081482F8B812A
:10012000282F30E081E090E0022E02C0880F991F56
:100130000A94E2F7809584238C93A8C0A4E3B0E0EE
:10014000E4E3F0E08081482F8B81282F30E081E0CC
:1001500090E0022E02C0880F991F0A94E2F7809562
:1001600084238C9393C0A1E3B0E0E1E3F0E08081CD
:10017000482F8B81282F30E081E090E0022E02C0D2
:10018000880F991F0A94E2F7809584238C937EC090
:1001900081E089837BC08C81813009F072C08A81C3
:1001A000282F30E03E832D838D819E818130910503
:1001B00049F12D813E81223031052CF48D819E81C3
:1001C000009761F05BC02D813E812230310571F1D5
:1001D0008D819E8183309105E9F150C0AAE3B0E0A2
:1001E000EAE3F0E08081482F8B81282F30E081E026
:1001F00090E0022E02C0880F991F0A94E2F7842B28
:100200008C9344C0A7E3B0E0E7E3F0E08081482F9F
:100210008B81282F30E081E090E0022E02C0880F11
:10022000991F0A94E2F7842B8C9330C0A4E3B0E0CA
:10023000E4E3F0E08081482F8B81282F30E081E0DB
:1002400090E0022E02C0880F991F0A94E2F7842BD7
:100250008C931CC0A1E3B0E0E1E3F0E08081482F83
:100260008B81282F30E081E090E0022E02C0880FC1
:10027000991F0A94E2F7842B8C9308C081E089834C
:1002800005C081E0898302C081E089838981289645
:100290000FB6F894DEBF0FBECDBFCF91DF910895AA
:1002A000DF93CF9300D000D00F92CDB7DEB78A8313
:1002B0006B8319828A81282F30E03D832C838C81C7
:1002C0009D8181309105D1F02C813D812230310515
:1002D0002CF48C819D81009761F01FC02C813D81A1
:1002E0002230310581F08C819D818330910581F030
:1002F00014C0EAE3F0E08B81808311C0E7E3F0E013
:100300008B8180830CC0E4E3F0E08B81808307C0A5
:10031000E1E3F0E08B81808302C081E08983898101
:100320000F900F900F900F900F90CF91DF91089545
:10033000DF93CF93CDB7DEB728970FB6F894DEBF23
:100340000FBECDBF8A836B834C8319828B8188302B
:1003500008F0F4C08C81882309F077C08A81282FA7
:1003600030E038872F838F8198858130910559F14E
:100370002F813885223031052CF48F8198850097A4
:1003800069F060C02F8138852230310589F18F8175
:1003900098858330910509F440C054C0ABE3B0E0C8
:1003A000EBE3F0E08081482F8B81282F30E081E063
:1003B00090E0022E02C0880F991F0A94E2F7809500
:1003C00084238C93BDC0A8E3B0E0E8E3F0E0808133
:1003D000482F8B81282F30E081E090E0022E02C070
:1003E000880F991F0A94E2F7809584238C93A8C004
:1003F000A5E3B0E0E5E3F0E08081482F8B81282F72
:1004000030E081E090E0022E02C0880F991F0A942C
:10041000E2F7809584238C9393C0A2E3B0E0E2E3FB
:10042000F0E08081482F8B81282F30E081E090E040
:10043000022E02C0880F991F0A94E2F78095842348
:100440008C937EC081E089837BC08C81813009F0F0
:1004500072C08A81282F30E03E832D838D819E815A
:100460008130910549F12D813E81223031052CF4F6
:100470008D819E81009761F05BC02D813E8122308D
:10048000310571F18D819E8183309105E9F150C074
:10049000ABE3B0E0EBE3F0E08081482F8B81282FC5
:1004A00030E081E090E0022E02C0880F991F0A948C
:1004B000E2F7842B8C9344C0A8E3B0E0E8E3F0E0DB
:1004C0008081482F8B81282F30E081E090E0022E40
:1004D00002C0880F991F0A94E2F7842B8C9330C0D6
:1004E000A5E3B0E0E5E3F0E08081482F8B81282F81
:1004F00030E081E090E0022E02C0880F991F0A943C
:10050000E2F7842B8C931CC0A2E3B0E0E2E3F0E0BE
:100510008081482F8B81282F30E081E090E0022EEF
:1005200002C0880F991F0A94E2F7842B8C9308C0AD
:1005300081E0898305C081E0898302C081E08983ED
:10054000898128960FB6F894DEBF0FBECDBFCF913C
:10055000DF910895DF93CF9300D000D00F92CDB7F5
:10056000DEB78A836B8319828A81282F30E03D832E
:100570002C838C819D8181309105D1F02C813D812E
:10058000223031052CF48C819D81009761F01FC0D1
:100590002C813D812230310581F08C819D81833019
:1005A000910581F014C0EBE3F0E08B81808311C0F2
:1005B000E8E3F0E08B8180830CC0E5E3F0E08B8121
:1005C000808307C0E2E3F0E08B81808302C081E09A
:1005D000898389810F900F900F900F900F90CF918A
:1005E000DF910895DF93CF93CDB7DEB727970FB68E
:1005F000F894DEBF0FBECDBF8A836B835D834C83CF
:1006000019828C819D81009709F47BC08B81883091
:1006100008F074C08A81282F30E03F832E834E81FA
:100620005F814130510559F18E819F818230910562
:1006300034F42E813F812115310569F05CC04E8173
:100640005F814230510579F18E819F818330910520
:1006500009F43DC050C0E9E3F0E08081282F30E08C
:100660008B81882F90E0A90102C0559547958A9506
:10067000E2F7CA018170EC81FD81808344C0E6E32A
:10068000F0E08081282F30E08B81882F90E0A90155
:1006900002C0559547958A95E2F7CA018170EC81B1
:1006A000FD81808330C0E3E3F0E08081282F30E0DB
:1006B0008B81882F90E0A90102C0559547958A95B6
:1006C000E2F7CA018170EC81FD8180831CC0E0E308
:1006D000F0E08081282F30E08B81882F90E0A90105
:1006E00002C0559547958A95E2F7CA018170EC8161
:1006F000FD81808308C081E0898305C081E0898312
:1007000002C082E08983898127960FB6F894DEBF04
:100710000FBECDBFCF91DF910895DF93CF9300D06F
:1007200000D00F92CDB7DEB78A836B8319828B819D
:10073000883008F072C08A81282F30E03D832C83F6
:100740008C819D818130910549F12C813D81223040
:1007500031052CF48C819D81009761F05BC02C8168
:100760003D812230310571F18C819D81833091056D
:10077000E9F150C0ABE3B0E0EBE3F0E08081482F5B
:100780008B81282F30E081E090E0022E02C0880F9C
:10079000991F0A94E2F784278C9341C0A8E3B0E044
:1007A000E8E3F0E08081482F8B81282F30E081E062
:1007B00090E0022E02C0880F991F0A94E2F7842766
:1007C0008C932DC0A5E3B0E0E5E3F0E08081482FF5
:1007D0008B81282F30E081E090E0022E02C0880F4C
:1007E000991F0A94E2F784278C9319C0A2E3B0E022
:1007F000E2E3F0E08081482F8B81282F30E081E018
:1008000090E0022E02C0880F991F0A94E2F7842715
:100810008C9305C081E0898302C081E0898389814E
:100820000F900F900F900F900F90CF91DF91089540
:10083000DF93CF93CDB7DEB77894CF91DF91089552
:10084000DF93CF93CDB7DEB7F894CF91DF910895C2
:10085000AF92BF92CF92DF92EF92FF920F931F93CE
:10086000DF93CF93CDB7DEB768970FB6F894DEBFAE
:100870000FBECDBF69877A878B879C872D873E8780
:100880004F87588BE98AFA8A0B8B1C8BAD8ABE8AFC
:10089000CF8AD88E2DA13EA14FA158A589859A85D2
:1008A000AB85BC8579018A01E81AF90A0A0B1B0B92
:1008B000D801C70124E630E040E050E0BC01CD01A2
:1008C0000E94F0057B018C012D853E854F8558895E
:1008D00089859A85AB85BC85281B390B4A0B5B0B38
:1008E000C801B7010E940F06DA01C9018D839E83FA
:1008F000AF83B8872D893E894F89588D89899A8918
:10090000AB89BC8979018A01E81AF90A0A0B1B0B29
:10091000D801C7012D813E814F815885BC01CD0191
:100920000E94F005DC01CB0124E630E040E050E01D
:10093000BC01CD010E940F06DA01C9019C01AD0185
:1009400089899A89AB89BC89820F931FA41FB51F1F
:1009500089839A83AB83BC8389819A81AB81BC8173
:10096000BC01CD0168960FB6F894DEBF0FBECDBFB7
:10097000CF91DF911F910F91FF90EF90DF90CF907B
:10098000BF90AF900895DF93CF93CDB7DEB7EAE382
:10099000F0E01082E7E3F0E080E48083E4E3F0E05D
:1009A00083E08083E1E3F0E01082EBE3F0E010828B
:1009B000E8E3F0E01082E5E3F0E01082E2E3F0E04B
:1009C0001082CF91DF910895DF93CF93CDB7DEB73B
:1009D000ADE2B0E0EDE2F0E080818F7E8C93ADE29D
:1009E000B0E0EDE2F0E0808180688C93ADE2B0E0B1
:1009F000EDE2F0E080818F7D8C93ADE2B0E0EDE23E
:100A0000F0E08081877F8C93ADE2B0E0EDE2F0E032
:100A100080818B7F8C93ADE2B0E0EDE2F0E08081ED
:100A200080648C93CF91DF910895DF93CF930F92E1
:100A3000CDB7DEB78983ADE2B0E0EDE2F0E08081D2
:100A40008F7D8C9389818D3419F089818D36E9F4FD
:100A5000ADE2B0E0EDE2F0E0808180618C93ADE248
:100A6000B0E0EDE2F0E080818E7F8C93ADE2B0E00B
:100A7000EDE2F0E080818D7F8C93AEE2B0E0EEE2BB
:100A8000F0E0808181608C930DC08981833519F0FD
:100A90008981833739F4ADE2B0E0EDE2F0E08081A6
:100AA0008F7E8C93ADE2B0E0EDE2F0E08081806477
:100AB0008C930F90CF91DF910895DF93CF930F9296
:100AC000CDB7DEB78983EFE2F0E089818083EEE283
:100AD000F0E08081881F8827881F8130C1F7EFE20E
:100AE000F0E080810F90CF91DF910895DF93CF9355
:100AF00000D00F92CDB7DEB79B838A8319828A819B
:100B00009B81009739F08A819B819093610080934B
:100B1000600002C082E0898389810F900F900F905E
:100B2000CF91DF9108951F920F920FB60F9211246B
:100B30002F933F934F935F936F937F938F939F93E5
:100B4000AF93BF93EF93FF93DF93CF93CDB7DEB710
:100B50008091600090916100009729F0E091600021
:100B6000F09161000995CF91DF91FF91EF91BF91D5
:100B7000AF919F918F917F916F915F914F913F9135
:100B80002F910F900FBE0F901F901895DF93CF936A
:100B9000CDB7DEB70E94C3040E94E40485ED95E062
:100BA0000E9476050E941804FFCFDF93CF93CDB744
:100BB000DEB786E30E945D0580936200809162004B
:100BC000893331F482E060E041E00E94980105C081
:100BD00082E061E041E00E949801CF91DF910895A9
:100BE000629FD001739FF001829FE00DF11D649F11
:100BF000E00DF11D929FF00D839FF00D749FF00D9D
:100C0000659FF00D9927729FB00DE11DF91F639F3D
:100C1000B00DE11DF91FBD01CF011124089597FB0F
:100C2000092E05260ED057FD04D014D00AD0001C82
:100C300038F450954095309521953F4F4F4F5F4F79
:100C40000895F6F790958095709561957F4F8F4F39
:100C50009F4F0895A1E21A2EAA1BBB1BFD010DC0D8
:100C6000AA1FBB1FEE1FFF1FA217B307E407F5075C
:100C700020F0A21BB30BE40BF50B661F771F881F38
:100C8000991F1A9469F760957095809590959B01CE
:0C0C9000AC01BD01CF010895F894FFCF26
:00000001FF
