:020000040800F2
:100000000050002015020008650200086502000883
:100010006502000865020008650200080000000093
:100020000000000000000000000000006502000861
:100030006502000800000000650200086502000873
:1000400065020008650200086502000865020008F4
:1000500065020008650200086502000865020008E4
:1000600065020008650200086502000865020008D4
:1000700065020008650200086502000865020008C4
:1000800065020008650200086502000865020008B4
:1000900065020008650200086502000865020008A4
:1000A0006502000865020008650200086502000894
:1000B0006502000865020008650200086502000884
:1000C0006502000865020008650200086502000874
:1000D0006502000865020008650200086502000864
:1000E00065020008650200080000000065020008C3
:1000F0006502000865020008650200086502000844
:100100006502000865020008650200086502000833
:100110006502000865020008650200086502000823
:100120006502000865020008650200086502000813
:1001300010B5054C237833B9044B13B10448AFF321
:1001400000800123237010BD00000020000000008B
:10015000B002000808B5034B1BB103490348AFF3D5
:10016000008008BD0000000004000020B00200086C
:1001700080B400AF104B4FF011321A600F4B4FF0AC
:1001800011321A600E4B4FF011321A600D4B4FF0C6
:1001900011321A600C4B40F211121A600B4B4FF6E1
:1001A000FF721A600A4B00221A600A4B00221A6082
:1001B00000BFBD4680BC70470008014004080140F4
:1001C000000C0140040C0140001001400C080140EB
:1001D0000C0C01400C10014080B400AF064B002213
:1001E0001A60064B04221A60054B00221A6000BFF9
:1001F000BD4680BC704700BF14100240181002407A
:100200001C10024080B500AFFFF7E6FFFFF7B0FF1C
:10021000FEE700000D488546AFF300800C480D490D
:100220000D4A002302E0D458C4500433C4188C4251
:10023000F9D30A4A0A4C002301E013600432A242B7
:10024000FBD300F011F8FFF7DDFFFEE700500020C0
:100250000000002000000020D00200080000002064
:100260001C000020FEE7000070B500250C4E0D4C70
:10027000A41BA410A54209D100F01AF800250A4ECB
:100280000A4CA41BA410A54205D170BD56F8253018
:1002900098470135EEE756F8253098470135F2E7E3
:1002A000C8020008C8020008C8020008CC02000802
:1002B000F8B500BFF8BC08BC9E467047F8B500BF53
:0802C000F8BC08BC9E46704723
:0402C80055010008D4
:0402CC0031010008F4
:0400000508000215D8
:00000001FF
