:020000040800F2
:100000000050002075040008C5040008C50400085D
:10001000C5040008C5040008C5040008000000006D
:10002000000000000000000000000000C5040008FF
:10003000C504000800000000C5040008D90300083A
:10004000C5040008C5040008C5040008C50400086C
:10005000C5040008C5040008C5040008C50400085C
:10006000C5040008C5040008C5040008C50400084C
:10007000C5040008C5040008C5040008C50400083C
:10008000C5040008C5040008C5040008C50400082C
:10009000C5040008C5040008C5040008C50400081C
:1000A000C5040008C5040008C5040008C50400080C
:1000B000C5040008C5040008C5040008C5040008FC
:1000C000C5040008C5040008C5040008C5040008EC
:1000D000C5040008C5040008C5040008C5040008DC
:1000E000C5040008C504000800000000C50400089D
:1000F000C5040008C5040008C5040008C5040008BC
:10010000C5040008C5040008C5040008C5040008AB
:10011000C5040008C5040008C5040008C50400089B
:10012000C5040008C5040008C5040008C50400088B
:1001300010B5054C237833B9044B13B10448AFF321
:1001400000800123237010BD040000200000000087
:100150001005000808B5034B1BB103490348AFF372
:10016000008008BD00000000080000201005000805
:1001700090B486B000AF0146C7E900230B46FB737D
:100180000023FB75FB7B012B11D0022B1DD0002B14
:100190001FD1144A3B681360D7E900124FF00003E7
:1001A0004FF00004130000240F4A136014E00F4ABC
:1001B0003B681360D7E900124FF000034FF00004D2
:1001C000130000240A4A136006E00A4A3B681360E1
:1001D00002E00123FB7500BFFB7D18461837BD46C2
:1001E00090BC70470008014004080140000C014029
:1001F000040C01400010014080B485B000AF0346FC
:10020000FB710B46BB7113467B710023FB73BB79FB
:100210000F2B6FD87B79012B34D1FB79012B0FD0B9
:10022000022B19D0002B29D1364B1B68BA7901213A
:1002300001FA02F2D2431146324A0B4013605BE0EE
:10024000314B1B68BA79012101FA02F2D2431146FF
:100250002D4A0B4013604FE0BB79022B0BD82B4B80
:100260001B68BA79012101FA02F2D2431146274AEA
:100270000B40136040E00123FB733DE00123FB735F
:1002800000BF39E07B79002B31D1FB79012B0ED0F7
:10029000022B17D0002B26D11A4B1B68BA790121EB
:1002A00001FA02F21146174A0B43136024E0164B81
:1002B0001B68BA79012101FA02F21146124A0B4376
:1002C000136019E0BB79022B0AD8104B1B68BA796E
:1002D000012101FA02F211460C4A0B4313600BE0B4
:1002E0000123FB7308E00123FB7300BF04E001233B
:1002F000FB7301E00123FB73FB7B18461437BD46FB
:1003000080BC70470C0801400C0C01400C100140EF
:1003100080B485B000AF03460A46FB711346BB713B
:100320000023FB73BB790F2B31D8FB79012B0ED047
:10033000022B17D0002B26D1194B1B68BA7901214B
:1003400001FA02F21146164A4B40136021E0154BA8
:100350001B68BA79012101FA02F21146114A4B4099
:10036000136016E0BB79022B0AD80F4B1B68BA79D1
:10037000012101FA02F211460B4A4B40136008E0DA
:100380000123FB7305E00123FB7300BF01E00123A0
:10039000FB73FB7B18461437BD4680BC704700BF1B
:1003A0000C0801400C0C01400C10014080B400AF5F
:1003B000064B01221A60064B1C221A60054B0022D4
:1003C0001A6000BFBD4680BC704700BF14100240D9
:1003D000181002401C10024080B582B000AF154BCF
:1003E0001B78DBB2012B0ED1134B00221A60134B8A
:1003F0001B68124A23F002031360104B1B680F4A5C
:1004000023F0010313600E4B00221A700B4B1B6884
:100410001B0CDBB203F00103DBB2FB71094B1B6861
:10042000002B02D0074B1B68984700BF0837BD461A
:1004300080BD00BF0000002014E000E010E000E0FC
:10044000200000202400002080B500AFFFF7AEFFA1
:100450004FF033324FF033330020FFF789FE002294
:1004600001210020FFF7C8FE01210020FFF750FF07
:10047000FEE700000D488546AFF300800C480D49AB
:100480000D4A002302E0D458C4500433C4188C42EF
:10049000F9D30A4A0A4C002301E013600432A24255
:1004A000FBD300F011F8FFF7CFFFFEE7005000206C
:1004B0000000002004000020300500080400002097
:1004C00028000020FEE7000070B500250C4E0D4C02
:1004D000A41BA410A54209D100F01AF800250A4E69
:1004E0000A4CA41BA410A54205D170BD56F82530B6
:1004F00098470135EEE756F8253098470135F2E781
:100500002805000828050008280500082C05000813
:10051000F8B500BFF8BC08BC9E467047F8B500BFF0
:08052000F8BC08BC9E467047C0
:040528005501000871
:04052C003101000891
:0405300001000000C6
:040000050800047576
:00000001FF
