:100000000C942A000C94E0230C9413240C944624A2
:100010000C9447000C9447000C9447000C94470044
:100020000C9447000C9447000C9447000C94470034
:100030000C9447000C9447000C9447000C94470024
:100040000C940F070C9447000C9447000C94470045
:100050000C94470011241FBECFE5D8E0DEBFCDBF12
:1000600011E0A0E6B0E0E2EFFDE402C005900D92E1
:10007000AC32B107D9F711E0ACE2B1E001C01D929A
:10008000AD33B107E1F70E9410260C94F7260C94CB
:100090000000EF92FF920F931F937B018C0120E0F1
:1000A00030E040E05FE40E94490388238CF0C801FF
:1000B000B70120E030E040E05FE40E94C1010E940F
:1000C000A9039B01AC01205030404040504806C07D
:1000D000C801B7010E94A9039B01AC01B901CA0183
:1000E0001F910F91FF90EF900895A0E0B0E0EBE733
:1000F000F0E00C94C026DC012B01FA019C919230B7
:1001000008F439C1EB018881823008F433C194309E
:1001100069F4843009F02FC111969C91119789815F
:10012000981709F428C1ABEFB0E025C1843009F479
:1001300021C18230A9F4923009F01DC19A01AD01AC
:1001400088E0EA010990AE01E90109929E0181501F
:10015000C1F7E201898111969C918923818308C1AD
:10016000923009F407C112962D903C901397EB0141
:100170008A819B811496AD90BD90CD90DC901797AD
:10018000EC80FD800E811F819101281B390BB90184
:1001900037FF04C066277727621B730B6032710537
:1001A0000CF061C0121613066CF537014801062EDB
:1001B00004C096948794779467940A94D2F721E0C8
:1001C00030E040E050E004C0220F331F441F551FB1
:1001D0006A95D2F721503040404050402E213F21B7
:1001E00040235123211531054105510521F021E01E
:1001F00030E040E050E079018A01E628F72808293C
:1002000019293CC0232BD1F1260E371E350146019A
:10021000062E04C096948794779467940A94D2F734
:1002200021E030E040E050E004C0220F331F441FC3
:10023000551F6A95D2F721503040404050402A2146
:100240003B214C215D21211531054105510521F04E
:1002500021E030E040E050E059016A01A628B728CB
:10026000C828D9280BC0821593052CF01C01AA249C
:10027000BB24650103C0EE24FF24870111969C91E5
:10028000D20111968C91981709F445C0992339F041
:10029000A80197012A193B094C095D0906C0A6016E
:1002A00095012E193F09400B510B57FD08C01182D3
:1002B0003382228224833583468357831DC081E0A5
:1002C00081833382228288279927DC01821B930B4A
:1002D000A40BB50B84839583A683B7830DC0220F2F
:1002E000331F441F551F24833583468357838281E0
:1002F000938101979383828324813581468157813D
:10030000DA01C9010197A109B1098F5F9F4FAF4F72
:10031000BF4328F30BC0918333822282EA0CFB1C7B
:100320000C1D1D1DE482F5820683178383E0808304
:10033000248135814681578157FF1AC0C901AA27F8
:1003400097FDA095BA2F81709070A070B0705695EF
:10035000479537952795822B932BA42BB52B848318
:100360009583A683B7838281938101969383828349
:10037000DF0101C0D201CD01CDB7DEB7E2E10C94BF
:10038000DC26A0E2B0E0E7ECF1E00C94CC26698337
:100390007A838B839C832D833E834F835887E9E048
:1003A000EE2EF12CEC0EFD1ECE010196B7010E943F
:1003B000D2048E010F5E1F4FCE010596B8010E9438
:1003C000D2048A8991E089278A8BC701B801AE01DE
:1003D000475E5F4F0E9475000E94FD03A096E6E015
:1003E0000C94E826A0E2B0E0E8EFF1E00C94CC2613
:1003F00069837A838B839C832D833E834F835887C5
:10040000F9E0EF2EF12CEC0EFD1ECE010196B701A6
:100410000E94D2048E010F5E1F4FCE010596B801D7
:100420000E94D204C701B801AE01475E5F4F0E942F
:1004300075000E94FD03A096E6E00C94E826A0E279
:10044000B0E0E5E2F2E00C94C02669837A838B8306
:100450009C832D833E834F835887CE010196BE0136
:10046000675F7F4F0E94D204CE010596BE016F5E8A
:100470007F4F0E94D2049985923088F0898982301A
:10048000C8F0943019F4823051F404C0843029F457
:10049000923081F48BEF90E0C6C0923049F420E0B6
:1004A0009A858A89981321E02A87CE010996BBC0D4
:1004B000823049F420E09A858A89981321E02A8BBA
:1004C000CE014196B0C02D843E844F8458886D88FB
:1004D0007E888F88988CEE24FF248701AA24BB2471
:1004E000650140E050E060E070E0E0E0F0E0C10174
:1004F00081709070892BE9F0E60CF71C081D191D1E
:100500009A01AB012A0D3B1D4C1D5D1D80E090E062
:10051000A0E0B0E0E614F7040805190520F481E036
:1005200090E0A0E0B0E0BA01A901480F591F6A1F8E
:100530007B1FAA0CBB1CCC1CDD1C97FE08C081E0F5
:1005400090E0A0E0B0E0A82AB92ACA2ADB2A3196B6
:10055000E032F10549F0660C771C881C991C569412
:10056000479437942794C3CFFA85EA892B893C892D
:100570008B859C85280F391F2E5F3F4F17C0CA01FE
:1005800081709070892B61F016950795F794E79428
:1005900080E090E0A0E0B0E8E82AF92A0A2B1B2BC3
:1005A00076956795579547952F5F3F4F77FDE7CF36
:1005B0000CC0440F551F661F771F17FD4160EE0CDE
:1005C000FF1C001F111F21503040403090E05907A0
:1005D00090E0690790E4790760F32B8F3C8FDB0193
:1005E000CA018F779070A070B07080349105A1051A
:1005F000B10561F447FD0AC0E114F10401051105DC
:1006000029F0405C5F4F6F4F7F4F40781A8EFE1786
:1006100011F081E08A8F4D8F5E8F6F8F78A383E01A
:10062000898FCE0149960E94FD03A096E2E10C94C9
:10063000DC26A8E1B0E0EFE1F3E00C94CC2669837E
:100640007A838B839C832D833E834F83588789E0F5
:10065000E82EF12CEC0EFD1ECE010196B7010E9492
:10066000D2048E010F5E1F4FCE010596B8010E9485
:10067000D2048985823040F08989823028F0C70110
:10068000B8010E944A0501C08FEF6896E6E00C941D
:10069000E826A8E1B0E0EFE4F3E00C94CC2669830F
:1006A0007A838B839C832D833E834F83588789E095
:1006B000E82EF12CEC0EFD1ECE010196B7010E9432
:1006C000D2048E010F5E1F4FCE010596B8010E9425
:1006D000D2048985823040F08989823028F0C701B0
:1006E000B8010E944A0501C08FEF6896E6E00C94BD
:1006F000E826A8E1B0E0EFE7F3E00C94CC266983AC
:100700007A838B839C832D833E834F83588789E034
:10071000E82EF12CEC0EFD1ECE010196B7010E94D1
:10072000D2048E010F5E1F4FCE010596B8010E94C4
:10073000D2048985823040F08989823028F0C7014F
:10074000B8010E944A0501C081E06896E6E00C9479
:10075000E826ACE0B0E0EFEAF3E00C94D026698341
:100760007A838B839C83CE010196BE016B5F7F4FA2
:100770000E94D2048D81823061F1823050F1843048
:1007800021F48E81882351F12EC02F81388537FDC9
:1007900020C06E812F3131051CF06623F9F023C093
:1007A0008EE190E0821B930B29853A854B855C8511
:1007B00004C056954795379527958A95D2F76623B5
:1007C000B1F050954095309521953F4F4F4F5F4F79
:1007D0000EC020E030E040E050E009C02FEF3FEFD6
:1007E0004FEF5FE704C020E030E040E050E8B9019F
:1007F000CA012C96E2E00C94EC26DF92EF92FF9275
:100800000F931F93FC01E480F58006811781D1804E
:100810008081823048F480E090E0A0E1B0E0E82AF6
:10082000F92A0A2B1B2BA5C0843009F49FC0823003
:1008300021F4EE24FF24870105C0E114F104010531
:10084000110519F4E0E0F0E096C0628173819FEF3A
:10085000623879070CF05BC022E83FEF261B370BAC
:100860002A3131052CF020E030E040E050E02AC091
:10087000B801A701022E04C0769567955795479554
:100880000A94D2F781E090E0A0E0B0E004C0880FC5
:10089000991FAA1FBB1F2A95D2F70197A109B10979
:1008A0008E219F21A023B1230097A105B10521F03E
:1008B00081E090E0A0E0B0E09A01AB01282B392B59
:1008C0004A2B5B2BDA01C9018F779070A070B07052
:1008D00080349105A105B10539F427FF09C0205CDA
:1008E0003F4F4F4F5F4F04C0215C3F4F4F4F5F4F13
:1008F000E0E0F0E02030A0E03A07A0E04A07A0E402
:100900005A0710F0E1E0F0E079018A0127C0603871
:10091000710564F5FB01E158FF4FD801C7018F77DE
:100920009070A070B07080349105A105B10539F4C4
:10093000E7FE0DC080E490E0A0E0B0E004C08FE3EB
:1009400090E0A0E0B0E0E80EF91E0A1F1B1F17FFA1
:1009500005C016950795F794E794319687E01695AC
:100960000795F794E7948A95D1F705C0EE24FF2404
:100970008701EFEFF0E06E2F679566276795902F60
:100980009F77D794DD24D7948E2F8695492F462BB9
:10099000582F5D29B701CA011F910F91FF90EF9069
:1009A000DF900895FC01DB01408151812281622F9B
:1009B0006F7770E0221F2227221F9381892F880FD3
:1009C000822B282F30E0991F9927991F11969C930D
:1009D000119721153105A9F54115510561057105DD
:1009E00011F482E037C082E89FEF13969C938E93B8
:1009F00012979A01AB0167E0220F331F441F551F66
:100A00006A95D1F783E08C930DC0220F331F441FEA
:100A1000551F12968D919C911397019713969C9355
:100A20008E931297203080E0380780E0480780E4FA
:100A3000580758F314962D933D934D935C93179755
:100A400008952F3F310579F4411551056105710570
:100A500019F484E08C93089564FF03C081E08C93C3
:100A600012C01C9210C02F57304013963C932E9307
:100A7000129783E08C9387E0440F551F661F771F02
:100A80008A95D1F7706414964D935D936D937C9322
:100A9000179708951F93DC01FB019C91923008F495
:100AA00047C08081823008F443C0943051F41196DD
:100AB0001C91843099F58181682F70E0611B710968
:100AC0003FC0843021F0923031F48230B9F181811D
:100AD000882389F12DC011961C9111978230F1F075
:100AE00081811817D9F412962D913C911397828128
:100AF00093818217930794F028173907BCF0149656
:100B00008D919D910D90BC91A02D248135814681C0
:100B10005781281739074A075B0718F4112341F05A
:100B20000AC082179307A407B50740F4112319F0F0
:100B300061E070E005C06FEF7FEF02C060E070E041
:100B4000CB011F910895DF93CF93CDB7DEB7A7E216
:100B5000B0E0E7E2F0E080818F778C93A7E2B0E02D
:100B6000E7E2F0E0808180648C93A7E2B0E0E7E206
:100B7000F0E0808180628C93A6E2B0E0E6E2F0E0F3
:100B80008081887F8C93A6E2B0E0E6E2F0E080818D
:100B900087608C93A6E2B0E0E6E2F0E080818068B6
:100BA0008C93CF91DF910895DF93CF93CDB7DEB7CC
:100BB00028970FB6F894DEBF0FBECDBF8E8378871F
:100BC0006F831D828F819885009709F46AC0809198
:100BD0003301882309F062C019821A821B821C82A9
:100BE00081E080933301A7E2B0E0E7E2F0E08081AA
:100BF000807E8C93A7E2B0E0E7E2F0E090818E8106
:100C0000892B8C93A6E2B0E0E6E2F0E0808180647C
:100C10008C930BC089819A81AB81BC810196A11D07
:100C2000B11D89839A83AB83BC83E6E2F0E08081C7
:100C300082958F70882F90E081709070009761F49A
:100C400089819A81AB81BC81883823E1920720E0B9
:100C5000A20720E0B207F0F289819A81AB81BC81C2
:100C6000883823E1920720E0A20720E0B20719F4B8
:100C700083E08D8318C0A6E2B0E0E6E2F0E0808178
:100C800080618C93E5E2F0E08081882F90E0EF8135
:100C9000F885918380831092330105C084E08D83B1
:100CA00002C082E08D838D81882F90E028960FB658
:100CB000F894DEBF0FBECDBFCF91DF910895DF93D3
:100CC000CF9300D000D000D0CDB7DEB78A837C832D
:100CD0006B835E834D831092340119828B819C81DA
:100CE0000097C1F18D819E810097A1F18091330120
:100CF000882369F581E0809333018B819C819093F7
:100D0000300180932F018D819E81909332018093D9
:100D10003101A7E2B0E0E7E2F0E08081807E8C93D1
:100D2000A7E2B0E0E7E2F0E090818A81892B8C9322
:100D3000A6E2B0E0E6E2F0E0808180648C93A6E277
:100D4000B0E0E6E2F0E0808188608C9305C084E04A
:100D5000898302C082E089838981882F90E026966A
:100D60000FB6F894DEBF0FBECDBFCF91DF910895CF
:100D7000DF93CF9300D00F92CDB7DEB79B838A83EA
:100D800019828A819B81009709F440C080913301C8
:100D90008823C9F581E08093330181E08093340199
:100DA0008A819B8190932D0180932C0110922E01BA
:100DB000A7E2B0E0E7E2F0E08081807E8C93A7E2DA
:100DC000B0E0E7E2F0E04081E0912C01F0912D01EC
:100DD0002181328180912E01882F90E0F901E80F66
:100DE000F91F8081842B8C93A6E2B0E0E6E2F0E06C
:100DF000808180648C93A6E2B0E0E6E2F0E080813E
:100E000088608C9305C084E0898302C082E0898376
:100E100089810F900F900F90CF91DF9108951F92CD
:100E20000F920FB60F9211242F933F934F935F931E
:100E30006F937F938F939F93AF93BF93EF93FF93A2
:100E4000DF93CF93CDB7DEB780913401882309F5C6
:100E5000A0912F01B0913001E5E2F0E08081882F70
:100E600090E08D939C93A6E2B0E0E6E2F0E0808112
:100E7000877F8C93109233018091310190913201E0
:100E8000009709F46DC0E0913101F09132010995AC
:100E900067C080913401813009F062C0E0912C017B
:100EA000F0912D012381348180912E01882F90E0D3
:100EB000880F991FD901A80FB91FE5E2F0E08081E2
:100EC000882F90E011969C938E9380912E018F5FD6
:100ED00080932E01E0912C01F0912D019081809161
:100EE0002E019817D1F410923301A6E2B0E0E6E2A9
:100EF000F0E08081877F8C93E0912C01F0912D01AF
:100F000085819681009761F1E0912C01F0912D018E
:100F10000580F681E02D099523C0A7E2B0E0E7E265
:100F2000F0E08081807E8C93A7E2B0E0E7E2F0E021
:100F30004081E0912C01F0912D012181328180913D
:100F40002E01882F90E0F901E80FF91F8081842B92
:100F50008C93A6E2B0E0E6E2F0E0808180648C93BE
:100F6000CF91DF91FF91EF91BF91AF919F918F91C1
:100F70007F916F915F914F913F912F910F900FBE95
:100F80000F901F901895DF93CF93CDB7DEB7EF97F3
:100F90000FB6F894DEBF0FBECDBFCE014E969FAB0D
:100FA0008EABA3E2B1E0B9AFA8AFB8E0BAAFE8AD9D
:100FB000F9AD008088AD99AD019699AF88AFAEA923
:100FC000BFA90C92EEA9FFA93196FFABEEABFAAD2B
:100FD000F150FAAF8AAD882351F7DE019696BCAF87
:100FE000ABAFEBE1F1E0FEAFEDAFF8E0FFAFADADE1
:100FF000BEAD0C90EDADFEAD3196FEAFEDAFABAD3D
:10100000BCAD0C92EBADFCAD3196FCAFEBAFFFADE0
:10101000F150FFAF8FAD882351F788E0FE01BE96F7
:10102000DF01982F1D929A95E9F71D8E81E00E94AD
:10103000741B85E060E00E94711D80E690E00E94D4
:10104000441C0EC19E01225E3F4F81E0B9014D8DCF
:1010500021E00E94951D80E090E0AAE7B3E4898F2B
:101060009A8FAB8FBC8F698D7A8D8B8D9C8D20E094
:1010700030E04AE755E40E941F02DC01CB018D8B72
:101080009E8BAF8BB88F6D897E898F89988D20E07C
:1010900030E040E85FE30E94790388232CF481E08C
:1010A00090E09C8B8B8B3FC06D897E898F89988D5A
:1010B00020E03FEF4FE757E40E94190318164CF564
:1010C000698D7A8D8B8D9C8D20E030E040E251E47B
:1010D0000E941F02DC01CB01BC01CD010E9449002E
:1010E000DC01CB019C8B8B8B0FC080E991E09A8B4C
:1010F000898B89899A890197F1F79A8B898B8B89DA
:101100009C8901979C8B8B8B8B899C89009769F7B5
:1011100014C06D897E898F89988D0E944900DC01F9
:10112000CB019C8B8B8B8B899C89988B8F878F8530
:1011300098890197F1F7988B8F879E01225D3F4F29
:1011400083E0B9014D8D21E00E94951D8D8D8F5F4B
:101150008D8F9E012A5D3F4F82E0B9014D8D21E0C8
:101160000E94951D80E090E0AAE7B3E48B879C87FE
:10117000AD87BE876B857C858D859E8520E030E0C0
:101180004AE755E40E941F02DC01CB018F83988758
:10119000A987BA876F81788589859A8520E030E0B4
:1011A00040E85FE30E94790388232CF481E090E01B
:1011B0009E838D833FC06F81788589859A8520E0E5
:1011C0003FEF4FE757E40E94190318164CF56B8563
:1011D0007C858D859E8520E030E040E251E40E94D0
:1011E0001F02DC01CB01BC01CD010E944900DC01E2
:1011F000CB019E838D830FC080E991E09C838B831C
:101200008B819C810197F1F79C838B838D819E81DB
:1012100001979E838D838D819E81009769F714C00D
:101220006F81788589859A850E944900DC01CB0110
:101230009E838D838D819E819A83898389819A8102
:101240000197F1F79A8389839E01225D3F4F83E0E6
:10125000B9014D8D21E00E94951D8D8D8F5F8D8F81
:101260008D8D803109F0EECEEF960FB6F894DEBF8B
:101270000FBECDBFCF91DF9108950F931F93DF93E2
:10128000CF93CDB7DEB7CE5BD0400FB6F894DEBFBC
:101290000FBECDBF81E080933C01FE01E255FF4FC0
:1012A00081E08083FE01E355FF4F1082FE01E4558B
:1012B000FF4F1082FE01E555FF4F1082FE01E655FB
:1012C000FF4F1082FE01E755FF4F108281E00E9420
:1012D000741B88E690E00E94441C80E061E00E945C
:1012E000711DF7C39E0125543F4F83E062E0A901C1
:1012F0000E9494209E0124543F4F83E063E0A901A3
:101300000E9494209E0123543F4F83E064E0A90192
:101310000E9494209E0122543F4F83E065E0A90182
:101320000E949420FE01E554FF4F8081882309F03C
:10133000EFC061E070E080E090E00E94821C0E94BB
:101340005A14FE01EB55FF4F80E090E0AAE7B3E4AA
:1013500080839183A283B3838E010F551F4FFE01BB
:10136000EB55FF4F608171818281938120E030E0F5
:101370004AE755E40E941F02DC01CB01F80180839B
:101380009183A283B383FE01EF55FF4F608171818A
:101390008281938120E030E040E85FE30E9479039E
:1013A000882344F4FE01E156FF4F81E090E09183F1
:1013B000808364C0FE01EF55FF4F6081718182819F
:1013C000938120E03FEF4FE757E40E94190318167E
:1013D0000CF043C0FE01EB55FF4F608171818281AB
:1013E000938120E030E040E251E40E941F02DC01E2
:1013F000CB018E0101561F4FBC01CD010E94490057
:10140000DC01CB01F801918380831FC0FE01E3560C
:10141000FF4F80E991E091838083FE01E356FF4F07
:10142000808191810197F1F7FE01E356FF4F91838F
:101430008083DE01A156BF4FFE01E156FF4F808140
:101440009181019711969C938E93FE01E156FF4F77
:10145000808191810097D1F627C08E0101561F4FE0
:10146000FE01EF55FF4F60817181828193810E945F
:101470004900DC01CB01F80191838083DE01A55690
:10148000BF4FFE01E156FF4F808191818D939C9368
:10149000FE01E556FF4F808191810197F1F7FE0132
:1014A000E556FF4F91838083FE01E555FF4F808114
:1014B00061E00E94711D8AE20E948F1BFE01E455CB
:1014C000FF4F8081282F30E0CE0181559F4FFC01D6
:1014D000E20FF31F81E38083DE01A355BF4FFE01BE
:1014E000E355FF4F80818F5F8C93DE01A455BF4F82
:1014F000FE01E455FF4F80818F5F8C93DE01A5557F
:10150000BF4FFE01E555FF4F80818F5F8C93E1C295
:10151000FE01E454FF4F8081882309F0EFC062E0B0
:1015200070E080E090E00E94821C0E945A14FE014C
:10153000E956FF4F80E090E0AAE7B3E4808391830F
:10154000A283B3838E010D561F4FFE01E956FF4F54
:10155000608171818281938120E030E04AE755E427
:101560000E941F02DC01CB01F80180839183A283DA
:10157000B383FE01ED56FF4F6081718182819381BB
:1015800020E030E040E85FE30E947903882344F4E0
:10159000FE01EF56FF4F81E090E09183808364C0AD
:1015A000FE01ED56FF4F608171818281938120E0C1
:1015B0003FEF4FE757E40E94190318160CF043C0A1
:1015C000FE01E956FF4F608171818281938120E0A5
:1015D00030E040E251E40E941F02DC01CB018E01A9
:1015E0000F561F4FBC01CD010E944900DC01CB0109
:1015F000F801918380831FC0FE01E157FF4F80E90E
:1016000091E091838083FE01E157FF4F80819181BA
:101610000197F1F7FE01E157FF4F91838083DE01CF
:10162000AF56BF4FFE01EF56FF4F8081918101976A
:1016300011969C938E93FE01EF56FF4F808191810E
:101640000097D1F627C08E010F561F4FFE01ED56B1
:10165000FF4F60817181828193810E944900DC018A
:10166000CB01F80191838083DE01A357BF4FFE01B8
:10167000EF56FF4F808191818D939C93FE01E3573C
:10168000FF4F808191810197F1F7FE01E357FF4FF2
:1016900091838083FE01E555FF4F808161E00E94C8
:1016A000711D8AE20E948F1BFE01E455FF4F80816D
:1016B000282F30E0CE0181559F4FFC01E20FF31F30
:1016C00082E38083DE01A355BF4FFE01E355FF4F48
:1016D00080818F5F8C93DE01A455BF4FFE01E455DE
:1016E000FF4F80818F5F8C93DE01A555BF4FFE01B8
:1016F000E555FF4F80818F5F8C93EBC1FE01E35472
:10170000FF4F8081882309F0EFC063E070E080E044
:1017100090E00E94821C0E945A14FE01E757FF4F7E
:1017200080E090E0AAE7B3E480839183A283B3834F
:101730008E010B571F4FFE01E757FF4F60817181EC
:101740008281938120E030E04AE755E40E941F0245
:10175000DC01CB01F80180839183A283B383FE0176
:10176000EB57FF4F608171818281938120E030E0EF
:1017700040E85FE30E947903882344F4FE01ED57BB
:10178000FF4F81E090E09183808364C0FE01EB57BE
:10179000FF4F608171818281938120E03FEF4FE7AD
:1017A00057E40E94190318160CF043C0FE01E757D6
:1017B000FF4F608171818281938120E030E040E2BF
:1017C00051E40E941F02DC01CB018E010D571F4F17
:1017D000BC01CD010E944900DC01CB01F8019183DD
:1017E00080831FC0FE01EF57FF4F80E991E0918396
:1017F0008083FE01EF57FF4F808191810197F1F7C0
:10180000FE01EF57FF4F91838083DE01AD57BF4F3D
:10181000FE01ED57FF4F80819181019711969C93B6
:101820008E93FE01ED57FF4F808191810097D1F695
:1018300027C08E010D571F4FFE01EB57FF4F6081F0
:101840007181828193810E944900DC01CB01F80102
:1018500091838083DE01A158BF4FFE01ED57FF4FFA
:10186000808191818D939C93FE01E158FF4F80818F
:1018700091810197F1F7FE01E158FF4F9183808339
:10188000FE01E555FF4F808161E00E94711D8AE2F3
:101890000E948F1BFE01E455FF4F8081282F30E00E
:1018A000CE0181559F4FFC01E20FF31F83E380833C
:1018B000DE01A355BF4FFE01E355FF4F80818F5FCF
:1018C0008C93DE01A455BF4FFE01E455FF4F80818C
:1018D0008F5F8C93DE01A555BF4FFE01E555FF4F8D
:1018E00080818F5F8C93F5C0FE01E254FF4F8081B1
:1018F000882309F0EEC064E070E080E090E00E9490
:10190000821C0E945A14FE01E558FF4F80E090E0CF
:10191000AAE7B3E480839183A283B3838E0109583D
:101920001F4FFE01E558FF4F6081718182819381D5
:1019300020E030E04AE755E40E941F02DC01CB01C1
:10194000F80180839183A283B383FE01E958FF4F9E
:10195000608171818281938120E030E040E85FE323
:101960000E947903882344F4FE01EB58FF4F81E085
:1019700090E09183808364C0FE01E958FF4F60814D
:1019800071818281938120E03FEF4FE757E40E940D
:10199000190318160CF043C0FE01E558FF4F608193
:1019A00071818281938120E030E040E251E40E9425
:1019B0001F02DC01CB018E010B581F4FBC01CD0172
:1019C0000E944900DC01CB01F801918380831FC094
:1019D000FE01ED58FF4F80E991E091838083FE0185
:1019E000ED58FF4F808191810197F1F7FE01ED588D
:1019F000FF4F91838083DE01AB58BF4FFE01EB5850
:101A0000FF4F80819181019711969C938E93FE01E7
:101A1000EB58FF4F808191810097D1F627C08E014E
:101A20000B581F4FFE01E958FF4F60817181828181
:101A300093810E944900DC01CB01F80191838083EE
:101A4000DE01AF58BF4FFE01EB58FF4F80819181FF
:101A50008D939C93FE01EF58FF4F808191810197F8
:101A6000F1F7FE01EF58FF4F91838083FE01E555AA
:101A7000FF4F808161E00E94711D8AE20E948F1BEE
:101A8000FE01E455FF4F8081282F30E0CE018155C3
:101A90009F4FFC01E20FF31F84E38083DE01A35517
:101AA000BF4FFE01E355FF4F80818F5F8C93DE01B6
:101AB000A455BF4FFE01E455FF4F80818F5F8C938B
:101AC000DE01A555BF4FFE01E555FF4F80818F5FB9
:101AD0008C93FE01E355FF4F8081843009F002CCE6
:101AE000FE01E359FF4F80E090E0AAEFB3E480836A
:101AF0009183A283B3838E0107591F4FFE01E359DF
:101B0000FF4F608171818281938120E030E04AE75C
:101B100055E40E941F02DC01CB01F8018083918310
:101B2000A283B383FE01E759FF4F608171818281F7
:101B3000938120E030E040E85FE30E94790388234E
:101B400044F4FE01E959FF4F81E090E091838083E6
:101B500064C0FE01E759FF4F6081718182819381EA
:101B600020E03FEF4FE757E40E94190318160CF0EE
:101B700043C0FE01E359FF4F6081718182819381EF
:101B800020E030E040E251E40E941F02DC01CB0182
:101B90008E0109591F4FBC01CD010E944900DC0193
:101BA000CB01F801918380831FC0FE01EB59FF4FE9
:101BB00080E991E091838083FE01EB59FF4F8081A2
:101BC00091810197F1F7FE01EB59FF4F91838083DB
:101BD000DE01A959BF4FFE01E959FF4F8081918174
:101BE000019711969C938E93FE01E959FF4F8081D6
:101BF00091810097D1F628C08E0109591F4FFE012F
:101C0000E759FF4F60817181828193810E94490071
:101C1000DC01CB01F80191838083DE01AD59BF4F18
:101C2000FE01E959FF4F8081918111969C938E931B
:101C3000FE01ED59FF4F808191810197F1F7FE017F
:101C4000ED59FF4F91838083FE01E455FF4F1082D1
:101C50002FC0FE01E455FF4F8081482F50E0FE0168
:101C6000E355FF4F8081882F90E09C012150304048
:101C7000CE0181559F4FFC01E20FF31F2081CE0161
:101C80008D549F4FFC01E40FF51F2083DE01A35507
:101C9000BF4FFE01E355FF4F808181508C93DE01E1
:101CA000A455BF4FFE01E455FF4F80818F5F8C9399
:101CB000FE01E455FF4F8081843058F2CCC581E0AD
:101CC0000E94741B89E790E00E94441C88E061E058
:101CD0000E94711D8AE890E00E94441CFE01E255BA
:101CE000FF4F8081882F90E0A0E0B0E0BC01CD01E3
:101CF0000E94821C80E061E00E94711DFE01E4559B
:101D0000FF4F1082FE01E555FF4F1082FE01E355A3
:101D1000FF4F108288C39E0125543F4F83E062E04D
:101D2000A9010E9494209E0124543F4F83E063E068
:101D3000A9010E9494209E0123543F4F83E064E058
:101D4000A9010E9494209E0122543F4F83E065E048
:101D5000A9010E949420FE01E554FF4F8081882351
:101D600009F0EFC061E070E080E090E00E94821C2A
:101D70000E945A14FE01E15AFF4F80E090E0AAE76A
:101D8000B3E480839183A283B3838E01055A1F4FEE
:101D9000FE01E15AFF4F608171818281938120E0D1
:101DA00030E04AE755E40E941F02DC01CB01F80154
:101DB00080839183A283B383FE01E55AFF4F608144
:101DC00071818281938120E030E040E85FE30E94EE
:101DD0007903882344F4FE01E75AFF4F81E090E045
:101DE0009183808364C0FE01E55AFF4F6081718159
:101DF0008281938120E03FEF4FE757E40E9419036F
:101E000018160CF043C0FE01E15AFF4F608171814A
:101E10008281938120E030E040E251E40E941F0281
:101E2000DC01CB018E01075A1F4FBC01CD010E947E
:101E30004900DC01CB01F801918380831FC0FE01C2
:101E4000E95AFF4F80E991E091838083FE01E95ACE
:101E5000FF4F808191810197F1F7FE01E95AFF4F11
:101E600091838083DE01A75ABF4FFE01E75AFF4FDF
:101E700080819181019711969C938E93FE01E75A80
:101E8000FF4F808191810097D1F627C08E01075ABC
:101E90001F4FFE01E55AFF4F60817181828193815E
:101EA0000E944900DC01CB01F80191838083DE01AF
:101EB000AB5ABF4FFE01E75AFF4F808191818D934E
:101EC0009C93FE01EB5AFF4F808191810197F1F7BE
:101ED000FE01EB5AFF4F91838083FE01E555FF4FD2
:101EE000808161E00E94711D8AE20E948F1BFE01C9
:101EF000E455FF4F8081282F30E0CE0189549F4F59
:101F0000FC01E20FF31F81E38083DE01A355BF4F85
:101F1000FE01E355FF4F80818F5F8C93DE01A45556
:101F2000BF4FFE01E455FF4F80818F5F8C93DE0130
:101F3000A555BF4FFE01E555FF4F80818F5F8C9304
:101F400072C2FE01E454FF4F8081882309F0EFC084
:101F500062E070E080E090E00E94821C0E945A14CF
:101F6000FE01EF5AFF4F80E090E0AAE7B3E48083E0
:101F70009183A283B3838E01035B1F4FFE01EF5A4F
:101F8000FF4F608171818281938120E030E04AE7D8
:101F900055E40E941F02DC01CB01F801808391838C
:101FA000A283B383FE01E35BFF4F60817181828175
:101FB000938120E030E040E85FE30E9479038823CA
:101FC00044F4FE01E55BFF4F81E090E09183808364
:101FD00064C0FE01E35BFF4F608171818281938168
:101FE00020E03FEF4FE757E40E94190318160CF06A
:101FF00043C0FE01EF5AFF4F60817181828193815E
:1020000020E030E040E251E40E941F02DC01CB01FD
:102010008E01055B1F4FBC01CD010E944900DC0110
:10202000CB01F801918380831FC0FE01E75BFF4F66
:1020300080E991E091838083FE01E75BFF4F80811F
:1020400091810197F1F7FE01E75BFF4F9183808358
:10205000DE01A55BBF4FFE01E55BFF4F80819181F3
:10206000019711969C938E93FE01E55BFF4F808153
:1020700091810097D1F627C08E01055B1F4FFE01AD
:10208000E35BFF4F60817181828193810E944900EF
:10209000DC01CB01F80191838083DE01A95BBF4F96
:1020A000FE01E55BFF4F808191818D939C93FE0142
:1020B000E95BFF4F808191810197F1F7FE01E95BB8
:1020C000FF4F91838083FE01E555FF4F808161E0E2
:1020D0000E94711D8AE20E948F1BFE01E455FF4F92
:1020E0008081282F30E0CE0189549F4FFC01E20F00
:1020F000F31F82E38083DE01A355BF4FFE01E3554A
:10210000FF4F80818F5F8C93DE01A455BF4FFE018E
:10211000E455FF4F80818F5F8C93DE01A555BF4F43
:10212000FE01E555FF4F80818F5F8C937CC1FE01DE
:10213000E354FF4F8081882309F0C1C063E070E061
:1021400080E090E00E94821C0E945A14FE01ED5B28
:10215000FF4F80E090E0AAE7B3E480839183A283FD
:10216000B3838E01015C1F4FFE01ED5BFF4F608169
:1021700071818281938120E030E04AE755E40E943A
:102180001F02DC01CB01F80180839183A283B3831A
:10219000FE01FF96608171818281938120E030E0B1
:1021A00040E85FE30E94790388232CF481E090E00B
:1021B0009EAF8DAF46C0FE01FF9660817181828126
:1021C000938120E03FEF4FE757E40E941903181670
:1021D00064F5FE01ED5BFF4F608171818281938127
:1021E00020E030E040E251E40E941F02DC01CB011C
:1021F000BC01CD010E944900DC01CB019EAF8DAF37
:102200000FC080E991E09CAF8BAF8BAD9CAD019787
:10221000F1F79CAF8BAF8DAD9EAD01979EAF8DAFAB
:102220008DAD9EAD009769F716C0FE01FF966081E7
:102230007181828193810E944900DC01CB019EAFB4
:102240008DAF8DAD9EAD9AAF89AF89AD9AAD019737
:10225000F1F79AAF89AFFE01E555FF4F808161E04C
:102260000E94711D8AE20E948F1BFE01E455FF4F00
:102270008081282F30E0CE0189549F4FFC01E20F6E
:10228000F31F83E38083DE01A355BF4FFE01E355B7
:10229000FF4F80818F5F8C93DE01A455BF4FFE01FD
:1022A000E455FF4F80818F5F8C93DE01A555BF4FB2
:1022B000FE01E555FF4F80818F5F8C93B4C0FE0116
:1022C000E254FF4F8081882309F0ADC064E070E0E4
:1022D00080E090E00E94821C0E945A1480E090E00E
:1022E000AAE7B3E48DAB9EABAFABB8AF6DA97EA947
:1022F0008FA998AD20E030E04AE755E40E941F0224
:10230000DC01CB0189AB9AABABABBCAB69A97AA9B9
:102310008BA99CA920E030E040E85FE30E947903AC
:1023200088232CF481E090E098AB8FA73FC069A987
:102330007AA98BA99CA920E03FEF4FE757E40E94C0
:10234000190318164CF56DA97EA98FA998AD20E048
:1023500030E040E251E40E941F02DC01CB01BC01ED
:10236000CD010E944900DC01CB0198AB8FA70FC0C3
:1023700080E991E09EA78DA78DA59EA50197F1F715
:102380009EA78DA78FA598A9019798AB8FA78FA51A
:1023900098A9009769F714C069A97AA98BA99CA983
:1023A0000E944900DC01CB0198AB8FA78FA598A9AB
:1023B0009CA78BA78BA59CA50197F1F79CA78BA742
:1023C000FE01E555FF4F808161E00E94711D8AE2A8
:1023D0000E948F1BFE01E455FF4F8081282F30E0C3
:1023E000CE0189549F4FFC01E20FF31F84E38083E9
:1023F000DE01A355BF4FFE01E355FF4F80818F5F84
:102400008C93DE01A455BF4FFE01E455FF4F808140
:102410008F5F8C93DE01A555BF4FFE01E555FF4F41
:1024200080818F5F8C93FE01E355FF4F8081843064
:1024300009F071CCFE01E355FF4F8081843009F033
:102440000AC2FE01E655FF4F1082FE01E755FF4F1D
:1024500010822EC0FE01E755FF4F8081282F30E00B
:10246000CE0189549F4FFC01E20FF31F4081FE0112
:10247000E755FF4F8081282F30E0CE018D549F4FCC
:10248000FC01E20FF31F8081481749F4DE01A655D5
:10249000BF4FFE01E655FF4F80818F5F8C93DE01B9
:1024A000A755BF4FFE01E755FF4F80818F5F8C938B
:1024B000FE01E755FF4F8081843060F2FE01E65552
:1024C000FF4F8081843009F041C181E00E94741B7C
:1024D00081E990E00E94441C82E061E00E94711D4D
:1024E0008CE990E00E94441CFE01E455FF4F1082ED
:1024F00018C0FE01E455FF4F8081282F30E0CE0147
:1025000081559F4FFC01E20FF31F80810E948F1BBA
:10251000DE01A455BF4FFE01E455FF4F80818F5F60
:102520008C93FE01E455FF4F8081843010F380E0EE
:1025300090E0AAE7B4E48FA398A7A9A7BAA76FA1D0
:1025400078A589A59AA520E030E04AE755E40E94E5
:102550001F02DC01CB018BA39CA3ADA3BEA36BA187
:102560007CA18DA19EA120E030E040E85FE30E94C5
:10257000790388232CF481E090E09AA389A33FC0DB
:102580006BA17CA18DA19EA120E03FEF4FE757E416
:102590000E94190318164CF56FA178A589A59AA574
:1025A00020E030E040E251E40E941F02DC01CB0158
:1025B000BC01CD010E944900DC01CB019AA389A393
:1025C0000FC080E991E098A38F8F8F8D98A101971C
:1025D000F1F798A38F8F89A19AA101979AA389A354
:1025E00089A19AA1009769F714C06BA17CA18DA164
:1025F0009EA10E944900DC01CB019AA389A389A175
:102600009AA19E8F8D8F8D8D9E8D0197F1F79E8F54
:102610008D8F81E00E94741B82EA90E00E94441C2E
:1026200080E061E00E94711D83EB90E00E94441CF9
:102630008FEB90E00E94441C80E090E0AAE7B4E4B5
:10264000898F9A8FAB8FBC8F698D7A8D8B8D9C8D86
:1026500020E030E04AE755E40E941F02DC01CB0194
:102660008D8B9E8BAF8BB88F6D897E898F89988D6E
:1026700020E030E040E85FE30E94790388232CF4F7
:1026800081E090E09C8B8B8B3FC06D897E898F8928
:10269000988D20E03FEF4FE757E40E94190318168A
:1026A0004CF5698D7A8D8B8D9C8D20E030E040E279
:1026B00051E40E941F02DC01CB01BC01CD010E944C
:1026C0004900DC01CB019C8B8B8B0FC080E991E032
:1026D0009A8B898B89899A890197F1F79A8B898BD3
:1026E0008B899C8901979C8B8B8B8B899C8900970C
:1026F00069F714C06D897E898F89988D0E94490081
:10270000DC01CB019C8B8B8B8B899C89988B8F8771
:102710008F8598890197F1F7988B8F8780E00E94C9
:10272000A32380E063E00E94F92180E00E94FE2262
:102730000E94792404C00E9424170E94C919809124
:102740003C018130C1F30E947E1AA8C081E00E9442
:10275000741B84EC90E00E94441C80E090E0AAE7A7
:10276000B4E48B879C87AD87BE876B857C858D8520
:102770009E8520E030E04AE755E40E941F02DC011C
:10278000CB018F839887A987BA876F8178858985E0
:102790009A8520E030E040E85FE30E9479038823D7
:1027A0002CF481E090E09E838D833FC06F8178851B
:1027B00089859A8520E03FEF4FE757E40E9419038F
:1027C00018164CF56B857C858D859E8520E030E064
:1027D00040E251E40E941F02DC01CB01BC01CD01AB
:1027E0000E944900DC01CB019E838D830FC080E9EC
:1027F00091E09C838B838B819C810197F1F79C8373
:102800008B838D819E8101979E838D838D819E8197
:10281000009769F714C06F81788589859A850E9431
:102820004900DC01CB019E838D838D819E819A833B
:10283000898389819A810197F1F79A838983DE01DF
:10284000A255BF4FFE01E255FF4F80818F5F8C93F1
:1028500081E00E94741BFE01E255FF4F80818430AD
:1028600009F02DCAFE01E255FF4F80818430B1F49A
:1028700081E00E94741B84ED90E00E94441C80E083
:102880000E94A32380E00E94FE220E94792402C0BD
:102890000E94F51480913C018130D1F3C254DF4F86
:1028A0000FB6F894DEBF0FBECDBFCF91DF911F9161
:1028B0000F910895DF93CF93CDB7DEB72E970FB664
:1028C000F894DEBF0FBECDBF82E065E041E00E941C
:1028D0003A1F80E090E0AAE7B3E48B879C87AD873E
:1028E000BE876B857C858D859E8520E030E04AE73C
:1028F00055E40E941F02DC01CB018F839887A987D2
:10290000BA876F81788589859A8520E030E040E834
:102910005FE30E94790388232CF481E090E09E839A
:102920008D833FC06F81788589859A8520E03FEF50
:102930004FE757E40E94190318164CF56B857C8508
:102940008D859E8520E030E040E251E40E941F0228
:10295000DC01CB01BC01CD010E944900DC01CB01AF
:102960009E838D830FC080E991E09C838B838B8154
:102970009C810197F1F79C838B838D819E810197C8
:102980009E838D838D819E81009769F714C06F812E
:10299000788589859A850E944900DC01CB019E8358
:1029A0008D838D819E819A83898389819A81019704
:1029B000F1F79A83898382E065E040E00E943A1F44
:1029C0002E960FB6F894DEBF0FBECDBFCF91DF912C
:1029D0000895DF93CF93CDB7DEB782E061E041E0A9
:1029E0000E943A1FCF91DF910895DF93CF93CDB727
:1029F000DEB782E060E041E00E943A1FCF91DF91B4
:102A00000895DF93CF93CDB7DEB76C970FB6F894E8
:102A1000DEBF0FBECDBF82E062E041E00E943A1F00
:102A200080E090E0AAE7B4E4898F9A8FAB8FBC8FE7
:102A3000698D7A8D8B8D9C8D20E030E04AE755E4DE
:102A40000E941F02DC01CB018D8B9E8BAF8BB88F58
:102A50006D897E898F89988D20E030E040E85FE3C2
:102A60000E94790388232CF481E090E09C8B8B8B6F
:102A70003FC06D897E898F89988D20E03FEF4FE7B9
:102A800057E40E94190318164CF5698D7A8D8B8DC9
:102A90009C8D20E030E040E251E40E941F02DC0106
:102AA000CB01BC01CD010E944900DC01CB019C8B14
:102AB0008B8B0FC080E991E09A8B898B89899A89E9
:102AC0000197F1F79A8B898B8B899C8901979C8B55
:102AD0008B8B8B899C89009769F714C06D897E89DF
:102AE0008F89988D0E944900DC01CB019C8B8B8BD8
:102AF0008B899C89988B8F878F8598890197F1F7AF
:102B0000988B8F8782E062E040E00E943A1F80E06D
:102B100090E0AAE7B4E48B879C87AD87BE876B857E
:102B20007C858D859E8520E030E04AE755E40E9453
:102B30001F02DC01CB018F839887A987BA876F8139
:102B4000788589859A8520E030E040E85FE30E943F
:102B5000790388232CF481E090E09E838D833FC02D
:102B60006F81788589859A8520E03FEF4FE757E4AC
:102B70000E94190318164CF56B857C858D859E8502
:102B800020E030E040E251E40E941F02DC01CB0172
:102B9000BC01CD010E944900DC01CB019E838D83E5
:102BA0000FC080E991E09C838B838B819C8101978E
:102BB000F1F79C838B838D819E8101979E838D830A
:102BC0008D819E81009769F714C06F817885898512
:102BD0009A850E944900DC01CB019E838D838D8103
:102BE0009E819A83898389819A810197F1F79A83DB
:102BF00089836C960FB6F894DEBF0FBECDBFCF9120
:102C0000DF910895DF93CF93CDB7DEB72E970FB640
:102C1000F894DEBF0FBECDBF82E065E041E00E94C8
:102C20003A1F80E090E0AAE7B4E48B879C87AD87E9
:102C3000BE876B857C858D859E8520E030E04AE7E8
:102C400055E40E941F02DC01CB018F839887A9877E
:102C5000BA876F81788589859A8520E030E040E8E1
:102C60005FE30E94790388232CF481E090E09E8347
:102C70008D833FC06F81788589859A8520E03FEFFD
:102C80004FE757E40E94190318164CF56B857C85B5
:102C90008D859E8520E030E040E251E40E941F02D5
:102CA000DC01CB01BC01CD010E944900DC01CB015C
:102CB0009E838D830FC080E991E09C838B838B8101
:102CC0009C810197F1F79C838B838D819E81019775
:102CD0009E838D838D819E81009769F714C06F81DB
:102CE000788589859A850E944900DC01CB019E8305
:102CF0008D838D819E819A83898389819A810197B1
:102D0000F1F79A83898382E065E040E00E943A1FF0
:102D10002E960FB6F894DEBF0FBECDBFCF91DF91D8
:102D20000895DF93CF93CDB7DEB72E970FB6F89403
:102D3000DEBF0FBECDBF81E00E94741B84EE90E029
:102D40000E94441C0E94021680E090E0AAEFB4E4C6
:102D50008B879C87AD87BE876B857C858D859E859F
:102D600020E030E04AE755E40E941F02DC01CB017D
:102D70008F839887A987BA876F81788589859A8597
:102D800020E030E040E85FE30E94790388232CF4E0
:102D900081E090E09E838D833FC06F817885898537
:102DA0009A8520E03FEF4FE757E40E941903181679
:102DB0004CF56B857C858D859E8520E030E040E27A
:102DC00051E40E941F02DC01CB01BC01CD010E9435
:102DD0004900DC01CB019E838D830FC080E991E027
:102DE0009C838B838B819C810197F1F79C838B83E0
:102DF0008D819E8101979E838D838D819E81009719
:102E000069F714C06F81788589859A850E94490089
:102E1000DC01CB019E838D838D819E819A83898382
:102E200089819A810197F1F79A83898380913C0186
:102E30008F5F80933C012E960FB6F894DEBF0FBED5
:102E4000CDBFCF91DF910895DF93CF93CDB7DEB79C
:102E500060970FB6F894DEBF0FBECDBF188A1F86ED
:102E60000E940125988B8F8780E090E0A8ECB2E467
:102E70008B879C87AD87BE876B857C858D859E857E
:102E800020E030E04AE755E40E941F02DC01CB015C
:102E90008F839887A987BA876F81788589859A8576
:102EA00020E030E040E85FE30E94790388232CF4BF
:102EB00081E090E09E838D833FC06F817885898516
:102EC0009A8520E03FEF4FE757E40E941903181658
:102ED0004CF56B857C858D859E8520E030E040E259
:102EE00051E40E941F02DC01CB01BC01CD010E9414
:102EF0004900DC01CB019E838D830FC080E991E006
:102F00009C838B838B819C810197F1F79C838B83BE
:102F10008D819E8101979E838D838D819E810097F7
:102F200069F714C06F81788589859A850E94490068
:102F3000DC01CB019E838D838D819E819A83898361
:102F400089819A810197F1F79A8389838F8598897E
:102F50008530910598F582E060E041E00E943A1FDB
:102F600082E061E041E00E943A1F82E062E041E0DD
:102F70000E943A1F82E063E041E00E943A1F82E033
:102F800064E041E00E943A1F82E065E041E00E9477
:102F90003A1F82E066E041E00E943A1F82E067E06B
:102FA00041E00E943A1F8FE061E00E94711D68E0DD
:102FB00070E080E090E00E94821CE2C18F859889D9
:102FC0008F309105C0F58F8598898630910598F1ED
:102FD00082E060E041E00E943A1F82E061E041E06F
:102FE0000E943A1F82E062E041E00E943A1F82E0C4
:102FF00063E041E00E943A1F82E064E041E00E9409
:103000003A1F82E065E041E00E943A1F82E066E0FC
:1030100041E00E943A1F82E067E040E00E943A1FD0
:103020008FE061E00E94711D67E070E080E090E059
:103030000E94821CA5C18F85988989319105C0F5B0
:103040008F8598898031910598F182E060E041E0B8
:103050000E943A1F82E061E041E00E943A1F82E054
:1030600062E041E00E943A1F82E063E041E00E949A
:103070003A1F82E064E041E00E943A1F82E065E08E
:1030800041E00E943A1F82E066E040E00E943A1F61
:1030900082E067E040E00E943A1F8FE061E00E941A
:1030A000711D66E070E080E090E00E94821C68C1C3
:1030B0008F8598898D329105C0F58F8598898A31E1
:1030C000910598F182E060E041E00E943A1F82E0C1
:1030D00061E041E00E943A1F82E062E041E00E942C
:1030E0003A1F82E063E041E00E943A1F82E064E020
:1030F00041E00E943A1F82E065E040E00E943A1FF2
:1031000082E066E040E00E943A1F82E067E040E033
:103110000E943A1F8FE061E00E94711D65E070E03F
:1031200080E090E00E94821C2BC18F8598898A35AF
:103130009105C0F58F8598898E32910598F182E0CE
:1031400060E041E00E943A1F82E061E041E00E94BD
:103150003A1F82E062E041E00E943A1F82E063E0B1
:1031600041E00E943A1F82E064E040E00E943A1F82
:1031700082E065E040E00E943A1F82E066E040E0C5
:103180000E943A1F82E067E040E00E943A1F8FE011
:1031900061E00E94711D64E070E080E090E00E94B8
:1031A000821CEEC08F85988982389105C0F58F8585
:1031B00098898B35910598F182E060E041E00E94AA
:1031C0003A1F82E061E041E00E943A1F82E062E043
:1031D00041E00E943A1F82E063E040E00E943A1F13
:1031E00082E064E040E00E943A1F82E065E040E057
:1031F0000E943A1F82E066E040E00E943A1F82E0AF
:1032000067E040E00E943A1F8FE061E00E94711D7C
:1032100063E070E080E090E00E94821CB1C08F8586
:1032200098898F3A9105C0F58F85988983389105E3
:1032300098F182E060E041E00E943A1F82E061E0A4
:1032400041E00E943A1F82E062E040E00E943A1FA3
:1032500082E063E040E00E943A1F82E064E040E0E8
:103260000E943A1F82E065E040E00E943A1F82E03F
:1032700066E040E00E943A1F82E067E040E00E9482
:103280003A1F8FE061E00E94711D62E070E080E013
:1032900090E00E94821C74C08F859889803B9105C4
:1032A000C0F18F859889873D910598F582E060E0AF
:1032B00041E00E943A1F82E061E040E00E943A1F34
:1032C00082E062E040E00E943A1F82E063E040E07A
:1032D0000E943A1F82E064E040E00E943A1F82E0D0
:1032E00065E040E00E943A1F82E066E040E00E9414
:1032F0003A1F82E067E040E00E943A1F8FE061E001
:103300000E94711D61E070E080E090E00E94821CEC
:1033100037C08F859889883D910590F182E060E003
:1033200040E00E943A1F82E061E040E00E943A1FC4
:1033300082E062E040E00E943A1F82E063E040E009
:103340000E943A1F82E064E040E00E943A1F82E05F
:1033500065E040E00E943A1F82E066E040E00E94A3
:103360003A1F82E067E040E00E943A1F8FE061E090
:103370000E94711D60E070E080E090E00E94821C7D
:1033800060960FB6F894DEBF0FBECDBFCF91DF9130
:103390000895DF93CF93CDB7DEB72F970FB6F8948C
:1033A000DEBF0FBECDBF1F860E942A258F8785E016
:1033B00061E00E94711D8F85882F90E0A0E0B0E051
:1033C000BC01CD010E94821C80E090E0A8ECB2E438
:1033D0008B879C87AD87BE876B857C858D859E8519
:1033E00020E030E04AE755E40E941F02DC01CB01F7
:1033F0008F839887A987BA876F81788589859A8511
:1034000020E030E040E85FE30E94790388232CF459
:1034100081E090E09E838D833FC06F8178858985B0
:103420009A8520E03FEF4FE757E40E9419031816F2
:103430004CF56B857C858D859E8520E030E040E2F3
:1034400051E40E941F02DC01CB01BC01CD010E94AE
:103450004900DC01CB019E838D830FC080E991E0A0
:103460009C838B838B819C810197F1F79C838B8359
:103470008D819E8101979E838D838D819E81009792
:1034800069F714C06F81788589859A850E94490003
:10349000DC01CB019E838D838D819E819A838983FC
:1034A00089819A810197F1F79A8389838F85833285
:1034B00068F081E060E041E00E943A1F89E061E04D
:1034C0000E94711D8DE40E948F1B0FC08F858F316C
:1034D00060F481E060E040E00E943A1F89E061E032
:1034E0000E94711D80E20E948F1B2F960FB6F894E8
:1034F000DEBF0FBECDBFCF91DF910895DF93CF9395
:10350000CDB7DEB781E00E94741B82E060E040E04E
:103510000E943A1F82E061E040E00E943A1F82E090
:1035200062E040E00E943A1F82E063E040E00E94D7
:103530003A1F82E064E040E00E943A1F82E065E0CA
:1035400040E00E943A1F82E066E040E00E943A1F9D
:1035500082E067E040E00E943A1F81E060E040E0E6
:103560000E943A1FCF91DF910895DF93CF930F927E
:10357000CDB7DEB789838981982F917080E063E0B1
:10358000492F0E943A1F89818695982F917080E07B
:1035900064E0492F0E943A1F898186958695982F6D
:1035A000917080E065E0492F0E943A1F89818695DD
:1035B00086958695982F917080E066E0492F0E944D
:1035C0003A1F0F90CF91DF910895DF93CF93CDB73E
:1035D000DEB72E970FB6F894DEBF0FBECDBF80E0EA
:1035E00062E041E00E943A1F80E090E0A0E0B0E499
:1035F0008B879C87AD87BE876B857C858D859E85F7
:1036000020E030E04AE755E40E941F02DC01CB01D4
:103610008F839887A987BA876F81788589859A85EE
:1036200020E030E040E85FE30E94790388232CF437
:1036300081E090E09E838D833FC06F81788589858E
:103640009A8520E03FEF4FE757E40E9419031816D0
:103650004CF56B857C858D859E8520E030E040E2D1
:1036600051E40E941F02DC01CB01BC01CD010E948C
:103670004900DC01CB019E838D830FC080E991E07E
:103680009C838B838B819C810197F1F79C838B8337
:103690008D819E8101979E838D838D819E81009770
:1036A00069F714C06F81788589859A850E944900E1
:1036B000DC01CB019E838D838D819E819A838983DA
:1036C00089819A810197F1F79A83898380E062E08A
:1036D00040E00E943A1F2E960FB6F894DEBF0FBE50
:1036E000CDBFCF91DF910895DF93CF930F92CDB7E8
:1036F000DEB7898380E061E040E00E943A1F898163
:1037000082958F700E94B51A0E94E51A89810E94E5
:10371000B51A0E94E51A0F90CF91DF910895DF93BB
:10372000CF930F92CDB7DEB7898380E061E041E0AF
:103730000E943A1F898182958F700E94B51A0E945B
:10374000E51A89810E94B51A0E94E51A0F90CF915F
:10375000DF910895DF93CF93CDB7DEB72E970FB6E5
:10376000F894DEBF0FBECDBF80E090E0A0E2B2E4EF
:103770008B879C87AD87BE876B857C858D859E8575
:1037800020E030E04AE755E40E941F02DC01CB0153
:103790008F839887A987BA876F81788589859A856D
:1037A00020E030E040E85FE30E94790388232CF4B6
:1037B00081E090E09E838D833FC06F81788589850D
:1037C0009A8520E03FEF4FE757E40E94190318164F
:1037D0004CF56B857C858D859E8520E030E040E250
:1037E00051E40E941F02DC01CB01BC01CD010E940B
:1037F0004900DC01CB019E838D830FC080E991E0FD
:103800009C838B838B819C810197F1F79C838B83B5
:103810008D819E8101979E838D838D819E810097EE
:1038200069F714C06F81788589859A850E9449005F
:10383000DC01CB019E838D838D819E819A83898358
:1038400089819A810197F1F79A83898382E00E94A6
:10385000B51A0E94E51A82E00E94B51A0E94E51A84
:1038600088E00E94B51A0E94E51A8CE00E94741B41
:1038700081E00E94741B2E960FB6F894DEBF0FBE37
:10388000CDBFCF91DF910895DF93CF9300D000D0CB
:10389000CDB7DEB79C838B831A821982198206C04A
:1038A0008A818F5F8A8389818F5F89838981282FAD
:1038B00030E08B819C81FC01E20FF31F8081882323
:1038C00079F719820EC08981282F30E08B819C8185
:1038D000FC01E20FF31F80810E948F1B89818F5FA3
:1038E00089838981282F30E08A81882F90E0019791
:1038F0008217930744F70F900F900F900F90CF917E
:10390000DF9108950F931F93DF93CF93CDB7DEB769
:1039100067970FB6F894DEBF0FBECDBF6E877F8767
:10392000888B998B2DB73EB73F8B2E8B8DB79EB76B
:103930009B8B8A8B8E859F85A889B989BB239CF434
:103940008DE20E948F1B8E859F85A889B989B095CD
:10395000A095909581959F4FAF4FBF4F8E879F87C2
:10396000A88BB98B0CC08E859F85A889B9890097D3
:10397000A105B10521F480E30E948F1B99C08E85BB
:103980009F85A889B98988879987AA87BB878E85EB
:103990009F85A889B9898C839D83AE83BF831B8251
:1039A00015C088859985AA85BB852AE030E040E06E
:1039B00050E0BC01CD010E948326DA01C90188874D
:1039C0009987AA87BB878B818F5F8B838885998531
:1039D000AA85BB850097A105B10519F78B8189835D
:1039E0008981882F90E02DB73EB7281B390B0FB681
:1039F000F8943EBF0FBE2DBF8DB79EB701969D8B2D
:103A00008C8B8C899D8900969D8B8C8B2C893D8914
:103A10003D872C8730C08981882F90E08C01015030
:103A200010408C819D81AE81BF812AE030E040E072
:103A300050E0BC01CD010E948326DC01CB01282F80
:103A40008C859D85FC01E00FF11F20838C819D8179
:103A5000AE81BF812AE030E040E050E0BC01CD0102
:103A60000E948326DA01C9018C839D83AE83BF83C4
:103A70008981815089838C819D81AE81BF8100972E
:103A8000A105B10541F61A820FC08A81282F30E0C6
:103A90008C859D85FC01E20FF31F8081805D0E9473
:103AA0008F1B8A818F5F8A839A818B81981768F335
:103AB0008A899B890FB6F8949EBF0FBE8DBF2E8951
:103AC0003F890FB6F8943EBF0FBE2DBF67960FB665
:103AD000F894DEBF0FBECDBFCF91DF911F910F9144
:103AE0000895DF93CF9300D00F92CDB7DEB78A83CE
:103AF0006B838B81882F90E000249695879507949F
:103B0000969587950794982F802D982F8A81890FF5
:103B1000898389818068898389810E94741B0F90C1
:103B20000F900F90CF91DF910895DF93CF93CDB792
:103B3000DEB728970FB6F894DEBF0FBECDBF8C83DB
:103B40007E836D834F8328871B828D819E810097A2
:103B500059F18C81882F90E0880F991F880F991F49
:103B6000880F991F8A838A8180648A838A810E9450
:103B7000741B19820EC08981282F30E08D819E81AF
:103B8000FC01E20FF31F80810E948F1B89818F5FF0
:103B900089838981883078F38F8168850E94711DBF
:103BA0008C810E948F1B02C082E08B838B812896C0
:103BB0000FB6F894DEBF0FBECDBFCF91DF91089551
:103BC000DF93CF93CDB7DEB728970FB6F894DEBF5B
:103BD0000FBECDBF8A836B834C8319828B81883063
:103BE00008F0F4C08C81882309F077C08A81282FDF
:103BF00030E038872F838F8198858130910559F186
:103C00002F813885223031052CF48F8198850097DB
:103C100069F060C02F8138852230310589F18F81AC
:103C200098858330910509F440C054C0AAE3B0E000
:103C3000EAE3F0E08081482F8B81282F30E081E09B
:103C400090E0022E02C0880F991F0A94E2F7809537
:103C500084238C93BDC0A7E3B0E0E7E3F0E080816C
:103C6000482F8B81282F30E081E090E0022E02C0A7
:103C7000880F991F0A94E2F7809584238C93A8C03B
:103C8000A4E3B0E0E4E3F0E08081482F8B81282FAB
:103C900030E081E090E0022E02C0880F991F0A9464
:103CA000E2F7809584238C9393C0A1E3B0E0E1E335
:103CB000F0E08081482F8B81282F30E081E090E078
:103CC000022E02C0880F991F0A94E2F78095842380
:103CD0008C937EC081E089837BC08C81813009F028
:103CE00072C08A81282F30E03E832D838D819E8192
:103CF0008130910549F12D813E81223031052CF42E
:103D00008D819E81009761F05BC02D813E812230C4
:103D1000310571F18D819E8183309105E9F150C0AB
:103D2000AAE3B0E0EAE3F0E08081482F8B81282FFE
:103D300030E081E090E0022E02C0880F991F0A94C3
:103D4000E2F7842B8C9344C0A7E3B0E0E7E3F0E014
:103D50008081482F8B81282F30E081E090E0022E77
:103D600002C0880F991F0A94E2F7842B8C9330C00D
:103D7000A4E3B0E0E4E3F0E08081482F8B81282FBA
:103D800030E081E090E0022E02C0880F991F0A9473
:103D9000E2F7842B8C931CC0A1E3B0E0E1E3F0E0F8
:103DA0008081482F8B81282F30E081E090E0022E27
:103DB00002C0880F991F0A94E2F7842B8C9308C0E5
:103DC00081E0898305C081E0898302C081E0898325
:103DD000898128960FB6F894DEBF0FBECDBFCF9174
:103DE000DF910895DF93CF9300D000D00F92CDB72D
:103DF000DEB78A836B8319828A81282F30E03D8366
:103E00002C838C819D8181309105D1F02C813D8165
:103E1000223031052CF48C819D81009761F01FC008
:103E20002C813D812230310581F08C819D81833050
:103E3000910581F014C0EAE3F0E08B81808311C02A
:103E4000E7E3F0E08B8180830CC0E4E3F0E08B815A
:103E5000808307C0E1E3F0E08B81808302C081E0D2
:103E6000898389810F900F900F900F900F90CF91C1
:103E7000DF910895DF93CF93CDB7DEB728970FB6C4
:103E8000F894DEBF0FBECDBF8A836B834C8319824B
:103E90008B81883008F0F4C08C81882309F077C0CA
:103EA0008A81282F30E038872F838F819885813051
:103EB000910559F12F813885223031052CF48F81FD
:103EC0009885009769F060C02F81388522303105D0
:103ED00089F18F8198858330910509F440C054C0E1
:103EE000ABE3B0E0EBE3F0E08081482F8B81282F3B
:103EF00030E081E090E0022E02C0880F991F0A9402
:103F0000E2F7809584238C93BDC0A8E3B0E0E8E39A
:103F1000F0E08081482F8B81282F30E081E090E015
:103F2000022E02C0880F991F0A94E2F7809584231D
:103F30008C93A8C0A5E3B0E0E5E3F0E08081482FD2
:103F40008B81282F30E081E090E0022E02C0880FA4
:103F5000991F0A94E2F7809584238C9393C0A2E37F
:103F6000B0E0E2E3F0E08081482F8B81282F30E041
:103F700081E090E0022E02C0880F991F0A94E2F7B8
:103F8000809584238C937EC081E089837BC08C8163
:103F9000813009F072C08A81282F30E03E832D8362
:103FA0008D819E818130910549F12D813E812230A4
:103FB00031052CF48D819E81009761F05BC02D81CD
:103FC0003E812230310571F18D819E8183309105D2
:103FD000E9F150C0ABE3B0E0EBE3F0E08081482FC3
:103FE0008B81282F30E081E090E0022E02C0880F04
:103FF000991F0A94E2F7842B8C9344C0A8E3B0E0A5
:10400000E8E3F0E08081482F8B81282F30E081E0C9
:1040100090E0022E02C0880F991F0A94E2F7842BC9
:104020008C9330C0A5E3B0E0E5E3F0E08081482F59
:104030008B81282F30E081E090E0022E02C0880FB3
:10404000991F0A94E2F7842B8C931CC0A2E3B0E082
:10405000E2E3F0E08081482F8B81282F30E081E07F
:1040600090E0022E02C0880F991F0A94E2F7842B79
:104070008C9308C081E0898305C081E0898302C0F8
:1040800081E08983898128960FB6F894DEBF0FBE40
:10409000CDBFCF91DF910895DF93CF9300D000D0B3
:1040A0000F92CDB7DEB78A836B8319828A81282F5E
:1040B00030E03D832C838C819D8181309105D1F04E
:1040C0002C813D81223031052CF48C819D8100971B
:1040D00061F01FC02C813D812230310581F08C813F
:1040E0009D818330910581F014C0EBE3F0E08B817A
:1040F000808311C0E8E3F0E08B8180830CC0E5E3AE
:10410000F0E08B81808307C0E2E3F0E08B81808365
:1041100002C081E0898389810F900F900F900F90EA
:104120000F90CF91DF910895DF93CF93CDB7DEB796
:1041300027970FB6F894DEBF0FBECDBF8A836B837F
:104140005D834C8319828C819D81009709F47BC02B
:104150008B81883008F074C08A81282F30E03F833B
:104160002E834E815F814130510559F18E819F81AF
:104170008230910534F42E813F812115310569F09B
:104180005CC04E815F814230510579F18E819F8103
:104190008330910509F43DC050C0E9E3F0E080812F
:1041A000282F30E08B81882F90E0A90102C055951F
:1041B00047958A95E2F7CA018170EC81FD81808381
:1041C00044C0E6E3F0E08081282F30E08B81882F27
:1041D00090E0A90102C0559547958A95E2F7CA017A
:1041E0008170EC81FD81808330C0E3E3F0E0808169
:1041F000282F30E08B81882F90E0A90102C05595CF
:1042000047958A95E2F7CA018170EC81FD81808330
:104210001CC0E0E3F0E08081282F30E08B81882F04
:1042200090E0A90102C0559547958A95E2F7CA0129
:104230008170EC81FD81808308C081E0898305C0A5
:1042400081E0898302C082E08983898127960FB645
:10425000F894DEBF0FBECDBFCF91DF910895DF93FD
:10426000CF9300D000D00F92CDB7DEB78A836B8397
:1042700019828B81883008F072C08A81282F30E043
:104280003D832C838C819D818130910549F12C8166
:104290003D81223031052CF48C819D81009761F0A5
:1042A0005BC02C813D812230310571F18C819D8173
:1042B00083309105E9F150C0ABE3B0E0EBE3F0E00F
:1042C0008081482F8B81282F30E081E090E0022E02
:1042D00002C0880F991F0A94E2F784278C9341C08B
:1042E000A8E3B0E0E8E3F0E08081482F8B81282F3D
:1042F00030E081E090E0022E02C0880F991F0A94FE
:10430000E2F784278C932DC0A5E3B0E0E5E3F0E06D
:104310008081482F8B81282F30E081E090E0022EB1
:1043200002C0880F991F0A94E2F784278C9319C062
:10433000A2E3B0E0E2E3F0E08081482F8B81282FF8
:1043400030E081E090E0022E02C0880F991F0A94AD
:10435000E2F784278C9305C081E0898302C081E065
:10436000898389810F900F900F900F900F90CF91BC
:10437000DF910895DF93CF93CDB7DEB7A5E5B0E029
:10438000E5E5F0E080818E7F8C93A5E5B0E0E5E582
:10439000F0E0808182608C93A5E5B0E0E5E5F0E097
:1043A00080818B7F8C93A5E5B0E0E5E5F0E080812E
:1043B00088608C93A4E5B0E0E4E5F0E080818F7B39
:1043C0008C93ABE5B0E0EBE5F0E0808180648C930A
:1043D000ABE5B0E0EBE5F0E080818F778C93ABE567
:1043E000B0E0EBE5F0E080818F7D8C93CF91DF91A1
:1043F0000895DF93CF93CDB7DEB729970FB6F89422
:10440000DEBF0FBECDBF8A836B8319828A8188236A
:1044100009F05FC08B81282F30E039872887888595
:1044200099858230910529F1288539852330310518
:1044300034F4888599858130910561F047C02885DD
:1044400039852330310521F188859985843091059E
:1044500071F13CC0A5E5B0E0E5E5F0E080818E7F3C
:104460008C93A5E5B0E0E5E5F0E080818D7F8C934D
:10447000BBC0A5E5B0E0E5E5F0E0808181608C930C
:10448000A5E5B0E0E5E5F0E080818D7F8C93ACC0E0
:10449000A5E5B0E0E5E5F0E080818E7F8C93A5E5B1
:1044A000B0E0E5E5F0E0808182608C939DC0A5E5F9
:1044B000B0E0E5E5F0E0808181608C93A5E5B0E0B7
:1044C000E5E5F0E0808182608C938EC081E0898395
:1044D0008BC08A81813009F05FC08B81282F30E04A
:1044E0003F832E838E819F818230910529F12E8119
:1044F0003F812330310534F48E819F8181309105D5
:1045000061F047C02E813F812330310521F18E813A
:104510009F818430910571F13CC0A5E5B0E0E5E5EF
:10452000F0E080818B7F8C93A5E5B0E0E5E5F0E0DD
:104530008081877F8C9358C0A5E5B0E0E5E5F0E089
:10454000808184608C93A5E5B0E0E5E5F0E08081B2
:10455000877F8C9349C0A5E5B0E0E5E5F0E0808178
:104560008B7F8C93A5E5B0E0E5E5F0E08081886085
:104570008C933AC0A5E5B0E0E5E5F0E08081846089
:104580008C93A5E5B0E0E5E5F0E0808188608C9350
:104590002BC081E0898328C08A81823019F58B8104
:1045A000282F30E03D832C838C819D8183309105C1
:1045B00031F02C813D812430310549F010C0A4E553
:1045C000B0E0E4E5F0E080818F7B8C930DC0A4E542
:1045D000B0E0E4E5F0E0808180648C9305C081E088
:1045E000898302C081E08983898129960FB6F89476
:1045F000DEBF0FBECDBFCF91DF910895DF93CF9384
:1046000000D000D0CDB7DEB78A8319828A81282FE7
:1046100030E03C832B838B819C818130910589F034
:104620002B813C8122303105A1F08B819C81009748
:10463000C1F4ABE5B0E0EBE5F0E0808180648C9301
:1046400012C0ABE5B0E0EBE5F0E0808180688C93D0
:104650000AC0ABE5B0E0EBE5F0E0808180628C93CE
:1046600002C081E0898389810F900F900F900F9095
:10467000CF91DF910895DF93CF9300D000D0CDB7D5
:10468000DEB78A8319828A81282F30E03C832B830E
:104690008B819C818130910589F02B813C81223076
:1046A0003105A1F08B819C810097C1F4ABE5B0E0AE
:1046B000EBE5F0E080818F7B8C9312C0ABE5B0E03E
:1046C000EBE5F0E080818F778C930AC0ABE5B0E03A
:1046D000EBE5F0E080818F7D8C9302C081E08983DF
:1046E00089810F900F900F900F90CF91DF910895D7
:1046F000DF93CF9300D000D0CDB7DEB78A837C8321
:104700006B8319828B819C81009799F08A81833019
:1047100068F48A81882F90E0880F991FFC01EB5C78
:10472000FE4F8B819C819183808305C081E08983CA
:1047300002C082E0898389810F900F900F900F90C3
:10474000CF91DF910895DF93CF9300D000D0CDB704
:10475000DEB78A8319828A81282F30E03C832B833D
:104760008B819C818130910589F02B813C812230A5
:104770003105A1F08B819C810097C1F4AAE5B0E0DE
:10478000EAE5F0E0808180648C9312C0AAE5B0E095
:10479000EAE5F0E0808180688C930AC0AAE5B0E089
:1047A000EAE5F0E0808180628C9302C081E0898339
:1047B00089810F900F900F900F90CF91DF91089506
:1047C0001F920F920FB60F9211242F933F934F9386
:1047D0005F936F937F938F939F93AF93BF93EF9369
:1047E000FF93DF93CF93CDB7DEB7809135019091E2
:1047F0003601009729F0E0913501F09136010995D5
:10480000CF91DF91FF91EF91BF91AF919F918F91E8
:104810007F916F915F914F913F912F910F900FBEBC
:104820000F901F9018951F920F920FB60F921124A0
:104830002F933F934F935F936F937F938F939F93A8
:10484000AF93BF93EF93FF93DF93CF93CDB7DEB7D3
:104850008091370190913801009729F0E09137015C
:10486000F09138010995CF91DF91FF91EF91BF91C0
:10487000AF919F918F917F916F915F914F913F91F8
:104880002F910F900FBE0F901F9018951F920F92AF
:104890000FB60F9211242F933F934F935F936F9313
:1048A0007F938F939F93AF93BF93EF93FF93DF9388
:1048B000CF93CDB7DEB78091390190913A0100973F
:1048C00029F0E0913901F0913A010995CF91DF91FA
:1048D000FF91EF91BF91AF919F918F917F916F91D8
:1048E0005F914F913F912F910F900FBE0F901F90AE
:1048F0001895DF93CF93CDB7DEB77894CF91DF9142
:104900000895DF93CF93CDB7DEB7F894CF91DF91C1
:104910000895DF93CF9300D000D00F92CDB7DEB7CC
:104920008FEF89831A825EC08A81882F90E0FC0114
:10493000E95EFE4F908183E0692F40E00E943A1FBC
:104940001B823DC08B81882F90E0FC01ED5EFE4F05
:1049500090819E012C5F3F4F81E0692FA9010E9449
:1049600094208C81882341F58B81482F50E08A81E7
:10497000282F30E0CA01880F991F880F991F820FD6
:10498000931FFC01ED5FFE4F808189830FC08B81F7
:10499000882F90E0FC01ED5EFE4F90819E012C5F20
:1049A0003F4F81E0692FA9010E9494208C818823C8
:1049B00071F389818D831CC08B818F5F8B838B8189
:1049C000843008F4BFCF8A81882F90E0FC01E95E33
:1049D000FE4F908183E0692F41E00E943A1F8A8157
:1049E0008F5F8A838A81843008F49ECF89818D838A
:1049F0008D810F900F900F900F900F90CF91DF91BE
:104A00000895DF93CF9300D0CDB7DEB780E09E014D
:104A10002F5F3F4FB9010E94D40589819A810F9081
:104A20000F90CF91DF910895DF93CF9300D00F9235
:104A3000CDB7DEB78B838B819E012F5F3F4FB901CE
:104A40000E94D40589819A810F900F900F90CF9189
:104A5000DF910895DF93CF9300D00F92CDB7DEB7EB
:104A600087E09E012F5F3F4FB9010E94D4058981E5
:104A70009A81CC01A0E0B0E024EF31E040E050E0CA
:104A8000BC01CD010E946426DC01CB01892F9A2F45
:104A9000AB2FBB278B838B810F900F900F90CF9103
:104AA000DF910895AF92BF92CF92DF92EF92FF9283
:104AB0000F931F93DF93CF93CDB7DEB768970FB6F1
:104AC000F894DEBF0FBECDBF69877A878B879C873E
:104AD0002D873E874F87588BE98AFA8A0B8B1C8B70
:104AE000AD8ABE8ACF8AD88E2DA13EA14FA158A5EE
:104AF00089859A85AB85BC8579018A01E81AF90A0E
:104B00000A0B1B0BD801C70124E630E040E050E05F
:104B1000BC01CD010E9464267B018C012D853E8560
:104B20004F85588989859A85AB85BC85281B390BAB
:104B30004A0B5B0BC801B7010E948326DA01C90149
:104B40008D839E83AF83B8872D893E894F89588D89
:104B500089899A89AB89BC8979018A01E81AF90A9D
:104B60000A0B1B0BD801C7012D813E814F8158854F
:104B7000BC01CD010E946426DC01CB0124E630E0BB
:104B800040E050E0BC01CD010E948326DA01C9015A
:104B90009C01AD0189899A89AB89BC89820F931FD9
:104BA000A41FB51F89839A83AB83BC8389819A81B3
:104BB000AB81BC81BC01CD0168960FB6F894DEBF15
:104BC0000FBECDBFCF91DF911F910F91FF90EF905E
:104BD000DF90CF90BF90AF900895DF93CF93CDB784
:104BE000DEB7EAE3F0E08EE78083E7E3F0E081E020
:104BF0008083E4E3F0E08FEF8083E1E3F0E0108274
:104C0000EBE3F0E01082E8E3F0E01082E5E3F0E0AF
:104C10001082E2E3F0E08CE38083CF91DF9108958E
:104C2000DF93CF93CDB7DEB70E94ED250E94A30599
:104C30000E94AA1B0E94BA2122E336E280E0B90159
:104C40000E9478230E94792480913B018130E1F712
:104C500080E00E943B230E9402160E94C3070E942C
:104C60003D09F2CFDF93CF9300D0CDB7DEB780916F
:104C70003B01282F30E03A83298389819A8100976C
:104C800031F029813A812130310551F014C08091F1
:104C90003B018F5F80933B0180E00E94A3230FC004
:104CA00080913B01815080933B010E94911680E0EE
:104CB0000E94A32304C083EF90E00E94441C0F9045
:104CC0000F90CF91DF910895629FD001739FF00103
:104CD000829FE00DF11D649FE00DF11D929FF00D8C
:104CE000839FF00D749FF00D659FF00D9927729FC3
:104CF000B00DE11DF91F639FB00DE11DF91FBD014E
:104D0000CF011124089597FB092E05260ED057FDDB
:104D100004D014D00AD0001C38F45095409530953A
:104D200021953F4F4F4F5F4F0895F6F7909580952F
:104D3000709561957F4F8F4F9F4F0895A1E21A2E76
:104D4000AA1BBB1BFD010DC0AA1FBB1FEE1FFF1F2F
:104D5000A217B307E407F50720F0A21BB30BE40B7F
:104D6000F50B661F771F881F991F1A9469F76095C6
:104D70007095809590959B01AC01BD01CF01089580
:104D80002F923F924F925F926F927F928F929F925B
:104D9000AF92BF92CF92DF92EF92FF920F931F9349
:104DA000CF93DF93CDB7DEB7CA1BDB0B0FB6F894FA
:104DB000DEBF0FBECDBF09942A88398848885F843A
:104DC0006E847D848C849B84AA84B984C884DF80AB
:104DD000EE80FD800C811B81AA81B981CE0FD11D8F
:104DE0000FB6F894DEBF0FBECDBFED010895F89465
:024DF000FFCFF3
:104DF20057454C434F4D4500506C656173652045E6
:104E02006E7465722049443A00456E746572205092
:104E1200617373776F7264203A00547269616C2017
:104E22000020202057656C636F6D65004944203A6D
:104E3200200053797374656D2041637469766174DF
:104E420065640054454D503D202020432020004CF5
:104E520045443D0057726F6E672050617373776FE0
:104E620072642100204E6F206D6F7265205472694A
:104E7200616C73002053797374656D20436C6F739A
:104E820065640064656661756C7400000000000072
:104E92000000000102030405060708090A0B0C0DB5
:104EA2000E0F1004050607020304050E0E140E056C
:0C4EB2000E11000E0E050E140E11000073
:00000001FF
