:100000000C942A000C9447000C9447000C94470071
:100010000C9447000C9447000C9447000C94470044
:100020000C9447000C9447000C942B100C945E1019
:100030000C9447000C9447000C9447000C94470024
:100040000C940F070C9447000C9447000C94470045
:100050000C94470011241FBECFE5D8E0DEBFCDBF12
:1000600010E0A0E6B0E0E6EAF2E202C005900D92F0
:10007000A837B107D9F710E0A8E7B0E001C01D929A
:10008000A538B107E1F70E9491100C9451110C941E
:100090000000EF92FF920F931F937B018C0120E0F1
:1000A00030E040E05FE40E94490388238CF0C801FF
:1000B000B70120E030E040E05FE40E94C1010E940F
:1000C000A9039B01AC01205030404040504806C07D
:1000D000C801B7010E94A9039B01AC01B901CA0183
:1000E0001F910F91FF90EF900895A0E0B0E0EBE733
:1000F000F0E00C941A11DC012B01FA019C91923072
:1001000008F439C1EB018881823008F433C194309E
:1001100069F4843009F02FC111969C91119789815F
:10012000981709F428C1A0E7B0E025C1843009F48C
:1001300021C18230A9F4923009F01DC19A01AD01AC
:1001400088E0EA010990AE01E90109929E0181501F
:10015000C1F7E201898111969C918923818308C1AD
:10016000923009F407C112962D903C901397EB0141
:100170008A819B811496AD90BD90CD90DC901797AD
:10018000EC80FD800E811F819101281B390BB90184
:1001900037FF04C066277727621B730B6032710537
:1001A0000CF061C0121613066CF537014801062EDB
:1001B00004C096948794779467940A94D2F721E0C8
:1001C00030E040E050E004C0220F331F441F551FB1
:1001D0006A95D2F721503040404050402E213F21B7
:1001E00040235123211531054105510521F021E01E
:1001F00030E040E050E079018A01E628F72808293C
:1002000019293CC0232BD1F1260E371E350146019A
:10021000062E04C096948794779467940A94D2F734
:1002200021E030E040E050E004C0220F331F441FC3
:10023000551F6A95D2F721503040404050402A2146
:100240003B214C215D21211531054105510521F04E
:1002500021E030E040E050E059016A01A628B728CB
:10026000C828D9280BC0821593052CF01C01AA249C
:10027000BB24650103C0EE24FF24870111969C91E5
:10028000D20111968C91981709F445C0992339F041
:10029000A80197012A193B094C095D0906C0A6016E
:1002A00095012E193F09400B510B57FD08C01182D3
:1002B0003382228224833583468357831DC081E0A5
:1002C00081833382228288279927DC01821B930B4A
:1002D000A40BB50B84839583A683B7830DC0220F2F
:1002E000331F441F551F24833583468357838281E0
:1002F000938101979383828324813581468157813D
:10030000DA01C9010197A109B1098F5F9F4FAF4F72
:10031000BF4328F30BC0918333822282EA0CFB1C7B
:100320000C1D1D1DE482F5820683178383E0808304
:10033000248135814681578157FF1AC0C901AA27F8
:1003400097FDA095BA2F81709070A070B0705695EF
:10035000479537952795822B932BA42BB52B848318
:100360009583A683B7838281938101969383828349
:10037000DF0101C0D201CD01CDB7DEB7E2E10C94BF
:100380003611A0E2B0E0E7ECF1E00C9426116983AD
:100390007A838B839C832D833E834F835887E9E048
:1003A000EE2EF12CEC0EFD1ECE010196B7010E943F
:1003B000D2048E010F5E1F4FCE010596B8010E9438
:1003C000D2048A8991E089278A8BC701B801AE01DE
:1003D000475E5F4F0E9475000E94FD03A096E6E015
:1003E0000C944211A0E2B0E0E8EFF1E00C94261189
:1003F00069837A838B839C832D833E834F835887C5
:10040000F9E0EF2EF12CEC0EFD1ECE010196B701A6
:100410000E94D2048E010F5E1F4FCE010596B801D7
:100420000E94D204C701B801AE01475E5F4F0E942F
:1004300075000E94FD03A096E6E00C944211A0E234
:10044000B0E0E5E2F2E00C941A1169837A838B83C1
:100450009C832D833E834F835887CE010196BE0136
:10046000675F7F4F0E94D204CE010596BE016F5E8A
:100470007F4F0E94D2049985923088F0898982301A
:10048000C8F0943019F4823051F404C0843029F457
:10049000923081F480E790E0C6C0923049F420E0C9
:1004A0009A858A89981321E02A87CE010996BBC0D4
:1004B000823049F420E09A858A89981321E02A8BBA
:1004C000CE014196B0C02D843E844F8458886D88FB
:1004D0007E888F88988CEE24FF248701AA24BB2471
:1004E000650140E050E060E070E0E0E0F0E0C10174
:1004F00081709070892BE9F0E60CF71C081D191D1E
:100500009A01AB012A0D3B1D4C1D5D1D80E090E062
:10051000A0E0B0E0E614F7040805190520F481E036
:1005200090E0A0E0B0E0BA01A901480F591F6A1F8E
:100530007B1FAA0CBB1CCC1CDD1C97FE08C081E0F5
:1005400090E0A0E0B0E0A82AB92ACA2ADB2A3196B6
:10055000E032F10549F0660C771C881C991C569412
:10056000479437942794C3CFFA85EA892B893C892D
:100570008B859C85280F391F2E5F3F4F17C0CA01FE
:1005800081709070892B61F016950795F794E79428
:1005900080E090E0A0E0B0E8E82AF92A0A2B1B2BC3
:1005A00076956795579547952F5F3F4F77FDE7CF36
:1005B0000CC0440F551F661F771F17FD4160EE0CDE
:1005C000FF1C001F111F21503040403090E05907A0
:1005D00090E0690790E4790760F32B8F3C8FDB0193
:1005E000CA018F779070A070B07080349105A1051A
:1005F000B10561F447FD0AC0E114F10401051105DC
:1006000029F0405C5F4F6F4F7F4F40781A8EFE1786
:1006100011F081E08A8F4D8F5E8F6F8F78A383E01A
:10062000898FCE0149960E94FD03A096E2E10C94C9
:100630003611A8E1B0E0EFE1F3E00C9426116983F4
:100640007A838B839C832D833E834F83588789E0F5
:10065000E82EF12CEC0EFD1ECE010196B7010E9492
:10066000D2048E010F5E1F4FCE010596B8010E9485
:10067000D2048985823040F08989823028F0C70110
:10068000B8010E944A0501C08FEF6896E6E00C941D
:100690004211A8E1B0E0EFE4F3E00C942611698385
:1006A0007A838B839C832D833E834F83588789E095
:1006B000E82EF12CEC0EFD1ECE010196B7010E9432
:1006C000D2048E010F5E1F4FCE010596B8010E9425
:1006D000D2048985823040F08989823028F0C701B0
:1006E000B8010E944A0501C08FEF6896E6E00C94BD
:1006F0004211A8E1B0E0EFE7F3E00C942611698322
:100700007A838B839C832D833E834F83588789E034
:10071000E82EF12CEC0EFD1ECE010196B7010E94D1
:10072000D2048E010F5E1F4FCE010596B8010E94C4
:10073000D2048985823040F08989823028F0C7014F
:10074000B8010E944A0501C081E06896E6E00C9479
:100750004211ACE0B0E0EFEAF3E00C942A116983B7
:100760007A838B839C83CE010196BE016B5F7F4FA2
:100770000E94D2048D81823061F1823050F1843048
:1007800021F48E81882351F12EC02F81388537FDC9
:1007900020C06E812F3131051CF06623F9F023C093
:1007A0008EE190E0821B930B29853A854B855C8511
:1007B00004C056954795379527958A95D2F76623B5
:1007C000B1F050954095309521953F4F4F4F5F4F79
:1007D0000EC020E030E040E050E009C02FEF3FEFD6
:1007E0004FEF5FE704C020E030E040E050E8B9019F
:1007F000CA012C96E2E00C944611DF92EF92FF9230
:100800000F931F93FC01E480F58006811781D1804E
:100810008081823048F480E090E0A0E1B0E0E82AF6
:10082000F92A0A2B1B2BA5C0843009F49FC0823003
:1008300021F4EE24FF24870105C0E114F104010531
:10084000110519F4E0E0F0E096C0628173819FEF3A
:10085000623879070CF05BC022E83FEF261B370BAC
:100860002A3131052CF020E030E040E050E02AC091
:10087000B801A701022E04C0769567955795479554
:100880000A94D2F781E090E0A0E0B0E004C0880FC5
:10089000991FAA1FBB1F2A95D2F70197A109B10979
:1008A0008E219F21A023B1230097A105B10521F03E
:1008B00081E090E0A0E0B0E09A01AB01282B392B59
:1008C0004A2B5B2BDA01C9018F779070A070B07052
:1008D00080349105A105B10539F427FF09C0205CDA
:1008E0003F4F4F4F5F4F04C0215C3F4F4F4F5F4F13
:1008F000E0E0F0E02030A0E03A07A0E04A07A0E402
:100900005A0710F0E1E0F0E079018A0127C0603871
:10091000710564F5FB01E158FF4FD801C7018F77DE
:100920009070A070B07080349105A105B10539F4C4
:10093000E7FE0DC080E490E0A0E0B0E004C08FE3EB
:1009400090E0A0E0B0E0E80EF91E0A1F1B1F17FFA1
:1009500005C016950795F794E794319687E01695AC
:100960000795F794E7948A95D1F705C0EE24FF2404
:100970008701EFEFF0E06E2F679566276795902F60
:100980009F77D794DD24D7948E2F8695492F462BB9
:10099000582F5D29B701CA011F910F91FF90EF9069
:1009A000DF900895FC01DB01408151812281622F9B
:1009B0006F7770E0221F2227221F9381892F880FD3
:1009C000822B282F30E0991F9927991F11969C930D
:1009D000119721153105A9F54115510561057105DD
:1009E00011F482E037C082E89FEF13969C938E93B8
:1009F00012979A01AB0167E0220F331F441F551F66
:100A00006A95D1F783E08C930DC0220F331F441FEA
:100A1000551F12968D919C911397019713969C9355
:100A20008E931297203080E0380780E0480780E4FA
:100A3000580758F314962D933D934D935C93179755
:100A400008952F3F310579F4411551056105710570
:100A500019F484E08C93089564FF03C081E08C93C3
:100A600012C01C9210C02F57304013963C932E9307
:100A7000129783E08C9387E0440F551F661F771F02
:100A80008A95D1F7706414964D935D936D937C9322
:100A9000179708951F93DC01FB019C91923008F495
:100AA00047C08081823008F443C0943051F41196DD
:100AB0001C91843099F58181682F70E0611B710968
:100AC0003FC0843021F0923031F48230B9F181811D
:100AD000882389F12DC011961C9111978230F1F075
:100AE00081811817D9F412962D913C911397828128
:100AF00093818217930794F028173907BCF0149656
:100B00008D919D910D90BC91A02D248135814681C0
:100B10005781281739074A075B0718F4112341F05A
:100B20000AC082179307A407B50740F4112319F0F0
:100B300061E070E005C06FEF7FEF02C060E070E041
:100B4000CB011F910895DF93CF93CDB7DEB7A7E216
:100B5000B0E0E7E2F0E080818F778C93A7E2B0E02D
:100B6000E7E2F0E0808180648C93A7E2B0E0E7E206
:100B7000F0E0808180628C93A6E2B0E0E6E2F0E0F3
:100B80008081887F8C93A6E2B0E0E6E2F0E080818D
:100B900087608C93A6E2B0E0E6E2F0E080818068B6
:100BA0008C93CF91DF910895DF93CF93CDB7DEB7CC
:100BB00028970FB6F894DEBF0FBECDBF8E8378871F
:100BC0006F831D828F819885009709F46AC0809198
:100BD0007F00882309F062C019821A821B821C825E
:100BE00081E080937F00A7E2B0E0E7E2F0E080815F
:100BF000807E8C93A7E2B0E0E7E2F0E090818E8106
:100C0000892B8C93A6E2B0E0E6E2F0E0808180647C
:100C10008C930BC089819A81AB81BC810196A11D07
:100C2000B11D89839A83AB83BC83E6E2F0E08081C7
:100C300082958F70882F90E081709070009761F49A
:100C400089819A81AB81BC81883823E1920720E0B9
:100C5000A20720E0B207F0F289819A81AB81BC81C2
:100C6000883823E1920720E0A20720E0B20719F4B8
:100C700083E08D8318C0A6E2B0E0E6E2F0E0808178
:100C800080618C93E5E2F0E08081882F90E0EF8135
:100C9000F8859183808310927F0005C084E08D8366
:100CA00002C082E08D838D81882F90E028960FB658
:100CB000F894DEBF0FBECDBFCF91DF910895DF93D3
:100CC000CF9300D000D000D0CDB7DEB78A837C832D
:100CD0006B835E834D831092800019828B819C818F
:100CE0000097C1F18D819E810097A1F180917F00D5
:100CF000882369F581E080937F008B819C819093AC
:100D00007C0080937B008D819E8190937E008093F8
:100D10007D00A7E2B0E0E7E2F0E08081807E8C9386
:100D2000A7E2B0E0E7E2F0E090818A81892B8C9322
:100D3000A6E2B0E0E6E2F0E0808180648C93A6E277
:100D4000B0E0E6E2F0E0808188608C9305C084E04A
:100D5000898302C082E089838981882F90E026966A
:100D60000FB6F894DEBF0FBECDBFCF91DF910895CF
:100D7000DF93CF9300D00F92CDB7DEB79B838A83EA
:100D800019828A819B81009709F440C080917F007D
:100D90008823C9F581E080937F0081E08093800003
:100DA0008A819B81909379008093780010927A00D9
:100DB000A7E2B0E0E7E2F0E08081807E8C93A7E2DA
:100DC000B0E0E7E2F0E04081E0917800F091790056
:100DD0002181328180917A00882F90E0F901E80F1B
:100DE000F91F8081842B8C93A6E2B0E0E6E2F0E06C
:100DF000808180648C93A6E2B0E0E6E2F0E080813E
:100E000088608C9305C084E0898302C082E0898376
:100E100089810F900F900F90CF91DF9108951F92CD
:100E20000F920FB60F9211242F933F934F935F931E
:100E30006F937F938F939F93AF93BF93EF93FF93A2
:100E4000DF93CF93CDB7DEB780918000882309F57B
:100E5000A0917B00B0917C00E5E2F0E08081882FDA
:100E600090E08D939C93A6E2B0E0E6E2F0E0808112
:100E7000877F8C9310927F0080917D0090917E00FF
:100E8000009709F46DC0E0917D00F0917E00099516
:100E900067C080918000813009F062C0E0917800E5
:100EA000F09179002381348180917A00882F90E03D
:100EB000880F991FD901A80FB91FE5E2F0E08081E2
:100EC000882F90E011969C938E9380917A008F5F8B
:100ED00080937A00E0917800F09179009081809180
:100EE0007A009817D1F410927F00A6E2B0E0E6E213
:100EF000F0E08081877F8C93E0917800F091790019
:100F000085819681009761F1E0917800F0917900F8
:100F10000580F681E02D099523C0A7E2B0E0E7E265
:100F2000F0E08081807E8C93A7E2B0E0E7E2F0E021
:100F30004081E0917800F0917900218132818091A7
:100F40007A00882F90E0F901E80FF91F8081842B47
:100F50008C93A6E2B0E0E6E2F0E0808180648C93BE
:100F6000CF91DF91FF91EF91BF91AF919F918F91C1
:100F70007F916F915F914F913F912F910F900FBE95
:100F80000F901F901895DF93CF930F92CDB7DEB7D8
:100F900089838981982F917081E060E0492F0E94B8
:100FA000480C89818695982F917081E061E0492FE6
:100FB0000E94480C898186958695982F917081E0D2
:100FC00062E0492F0E94480C898186958695869516
:100FD000982F917081E064E0492F0E94480C0F9097
:100FE000CF91DF910895DF93CF93CDB7DEB72E97E2
:100FF0000FB6F894DEBF0FBECDBF80E062E041E0E7
:101000000E94480C80E090E0A0E0B0E48B879C87D1
:10101000AD87BE876B857C858D859E8520E030E021
:101020004AE755E40E941F02DC01CB018F839887B9
:10103000A987BA876F81788589859A8520E030E015
:1010400040E85FE30E94790388232CF481E090E07C
:101050009E838D833FC06F81788589859A8520E046
:101060003FEF4FE757E40E94190318164CF56B85C4
:101070007C858D859E8520E030E040E251E40E9431
:101080001F02DC01CB01BC01CD010E944900DC0143
:10109000CB019E838D830FC080E991E09C838B837D
:1010A0008B819C810197F1F79C838B838D819E813D
:1010B00001979E838D838D819E81009769F714C06F
:1010C0006F81788589859A850E944900DC01CB0172
:1010D0009E838D838D819E819A83898389819A8164
:1010E0000197F1F79A83898380E062E040E00E94F3
:1010F000480C2E960FB6F894DEBF0FBECDBFCF9131
:10110000DF910895DF93CF930F92CDB7DEB7898338
:1011100080E063E040E00E94480C898182958F70F6
:101120000E94C3070E94F30789810E94C3070E949F
:10113000F3070F90CF91DF910895DF93CF930F9234
:10114000CDB7DEB7898380E063E041E00E94480CC0
:10115000898182958F700E94C3070E94F30789815D
:101160000E94C3070E94F3070F90CF91DF9108956B
:10117000DF93CF93CDB7DEB72E970FB6F894DEBFCF
:101180000FBECDBF80E090E0A0E2B2E48B879C87E9
:10119000AD87BE876B857C858D859E8520E030E0A0
:1011A0004AE755E40E941F02DC01CB018F83988738
:1011B000A987BA876F81788589859A8520E030E094
:1011C00040E85FE30E94790388232CF481E090E0FB
:1011D0009E838D833FC06F81788589859A8520E0C5
:1011E0003FEF4FE757E40E94190318164CF56B8543
:1011F0007C858D859E8520E030E040E251E40E94B0
:101200001F02DC01CB01BC01CD010E944900DC01C1
:10121000CB019E838D830FC080E991E09C838B83FB
:101220008B819C810197F1F79C838B838D819E81BB
:1012300001979E838D838D819E81009769F714C0ED
:101240006F81788589859A850E944900DC01CB01F0
:101250009E838D838D819E819A83898389819A81E2
:101260000197F1F79A83898382E00E94C3070E9465
:10127000F30782E00E94C3070E94F30788E00E9400
:10128000C3070E94F3078CE00E94820881E00E945D
:1012900082082E960FB6F894DEBF0FBECDBFCF9159
:1012A000DF910895DF93CF9300D000D0CDB7DEB7A4
:1012B0009C838B831A821982198206C08A818F5F70
:1012C0008A8389818F5F89838981282F30E08B8190
:1012D0009C81FC01E20FF31F8081882379F719823A
:1012E0000EC08981282F30E08B819C81FC01E20FA8
:1012F000F31F80810E949D0889818F5F8983898186
:10130000282F30E08A81882F90E001978217930779
:1013100044F70F900F900F900F90CF91DF910895A9
:101320000F931F93DF93CF93CDB7DEB767970FB6B9
:10133000F894DEBF0FBECDBF6E877F87888B998BF9
:101340002DB73EB73F8B2E8B8DB79EB79B8B8A8B6D
:101350008E859F85A889B989BB239CF48DE20E9464
:101360009D088E859F85A889B989B095A09590958F
:1013700081959F4FAF4FBF4F8E879F87A88BB98BAB
:101380000CC08E859F85A889B9890097A105B105F4
:1013900021F480E30E949D0899C08E859F85A889CD
:1013A000B98988879987AA87BB878E859F85A889F1
:1013B000B9898C839D83AE83BF831B8215C08885CA
:1013C0009985AA85BB852AE030E040E050E0BC0169
:1013D000CD010E94DD10DA01C90188879987AA87AB
:1013E000BB878B818F5F8B8388859985AA85BB8519
:1013F0000097A105B10519F78B8189838981882F11
:1014000090E02DB73EB7281B390B0FB6F8943EBFBE
:101410000FBE2DBF8DB79EB701969D8B8C8B8C898F
:101420009D8900969D8B8C8B2C893D893D872C87CF
:1014300030C08981882F90E08C01015010408C8150
:101440009D81AE81BF812AE030E040E050E0BC01E8
:10145000CD010E94DD10DC01CB01282F8C859D85FC
:10146000FC01E00FF11F20838C819D81AE81BF8143
:101470002AE030E040E050E0BC01CD010E94DD10E8
:10148000DA01C9018C839D83AE83BF83898181503A
:1014900089838C819D81AE81BF810097A105B105B3
:1014A00041F61A820FC08A81282F30E08C859D85F5
:1014B000FC01E20FF31F8081805D0E949D088A81FC
:1014C0008F5F8A839A818B81981768F38A899B89B9
:1014D0000FB6F8949EBF0FBE8DBF2E893F890FB601
:1014E000F8943EBF0FBE2DBF67960FB6F894DEBFCF
:1014F0000FBECDBFCF91DF911F910F910895DF9364
:10150000CF9300D00F92CDB7DEB78A836B838B81E8
:10151000882F90E000249695879507949695879557
:101520000794982F802D982F8A81890F898389812C
:101530008068898389810E9482080F900F900F90A4
:10154000CF91DF910895DF93CF93CDB7DEB7289782
:101550000FB6F894DEBF0FBECDBF8C837E836D8344
:101560004F8328871B828D819E81009759F18C8142
:10157000882F90E0880F991F880F991F880F991F57
:101580008A838A8180648A838A810E948208198280
:101590000EC08981282F30E08D819E81FC01E20FF1
:1015A000F31F80810E949D0889818F5F89838981D3
:1015B000883078F38F8168850E947F0A8C810E9431
:1015C0009D0802C082E08B838B8128960FB6F89429
:1015D000DEBF0FBECDBFCF91DF910895DF93CF93D4
:1015E000CDB7DEB728970FB6F894DEBF0FBECDBFDC
:1015F0008A836B834C8319828B81883008F0F4C016
:101600008C81882309F077C08A81282F30E03887C1
:101610002F838F8198858130910559F12F813885ED
:10162000223031052CF48F819885009769F060C0D5
:101630002F8138852230310589F18F81988583305B
:10164000910509F440C054C0AAE3B0E0EAE3F0E039
:101650008081482F8B81282F30E081E090E0022E9E
:1016600002C0880F991F0A94E2F7809584238C9317
:10167000BDC0A7E3B0E0E7E3F0E08081482F8B81B5
:10168000282F30E081E090E0022E02C0880F991FE1
:101690000A94E2F7809584238C93A8C0A4E3B0E079
:1016A000E4E3F0E08081482F8B81282F30E081E057
:1016B00090E0022E02C0880F991F0A94E2F78095ED
:1016C00084238C9393C0A1E3B0E0E1E3F0E0808158
:1016D000482F8B81282F30E081E090E0022E02C05D
:1016E000880F991F0A94E2F7809584238C937EC01B
:1016F00081E089837BC08C81813009F072C08A814E
:10170000282F30E03E832D838D819E81813091058D
:1017100049F12D813E81223031052CF48D819E814D
:10172000009761F05BC02D813E812230310571F15F
:101730008D819E8183309105E9F150C0AAE3B0E02C
:10174000EAE3F0E08081482F8B81282F30E081E0B0
:1017500090E0022E02C0880F991F0A94E2F7842BB2
:101760008C9344C0A7E3B0E0E7E3F0E08081482F2A
:101770008B81282F30E081E090E0022E02C0880F9C
:10178000991F0A94E2F7842B8C9330C0A4E3B0E055
:10179000E4E3F0E08081482F8B81282F30E081E066
:1017A00090E0022E02C0880F991F0A94E2F7842B62
:1017B0008C931CC0A1E3B0E0E1E3F0E08081482F0E
:1017C0008B81282F30E081E090E0022E02C0880F4C
:1017D000991F0A94E2F7842B8C9308C081E08983D7
:1017E00005C081E0898302C081E0898389812896D0
:1017F0000FB6F894DEBF0FBECDBFCF91DF91089535
:10180000DF93CF9300D000D00F92CDB7DEB78A839D
:101810006B8319828A81282F30E03D832C838C8151
:101820009D8181309105D1F02C813D81223031059F
:101830002CF48C819D81009761F01FC02C813D812B
:101840002230310581F08C819D818330910581F0BA
:1018500014C0EAE3F0E08B81808311C0E7E3F0E09D
:101860008B8180830CC0E4E3F0E08B81808307C030
:10187000E1E3F0E08B81808302C081E0898389818C
:101880000F900F900F900F900F90CF91DF910895D0
:10189000DF93CF93CDB7DEB728970FB6F894DEBFAE
:1018A0000FBECDBF8A836B834C8319828B818830B6
:1018B00008F0F4C08C81882309F077C08A81282F32
:1018C00030E038872F838F8198858130910559F1D9
:1018D0002F813885223031052CF48F81988500972F
:1018E00069F060C02F8138852230310589F18F8100
:1018F00098858330910509F440C054C0ABE3B0E053
:10190000EBE3F0E08081482F8B81282F30E081E0ED
:1019100090E0022E02C0880F991F0A94E2F780958A
:1019200084238C93BDC0A8E3B0E0E8E3F0E08081BD
:10193000482F8B81282F30E081E090E0022E02C0FA
:10194000880F991F0A94E2F7809584238C93A8C08E
:10195000A5E3B0E0E5E3F0E08081482F8B81282FFC
:1019600030E081E090E0022E02C0880F991F0A94B7
:10197000E2F7809584238C9393C0A2E3B0E0E2E386
:10198000F0E08081482F8B81282F30E081E090E0CB
:10199000022E02C0880F991F0A94E2F780958423D3
:1019A0008C937EC081E089837BC08C81813009F07B
:1019B00072C08A81282F30E03E832D838D819E81E5
:1019C0008130910549F12D813E81223031052CF481
:1019D0008D819E81009761F05BC02D813E81223018
:1019E000310571F18D819E8183309105E9F150C0FF
:1019F000ABE3B0E0EBE3F0E08081482F8B81282F50
:101A000030E081E090E0022E02C0880F991F0A9416
:101A1000E2F7842B8C9344C0A8E3B0E0E8E3F0E065
:101A20008081482F8B81282F30E081E090E0022ECA
:101A300002C0880F991F0A94E2F7842B8C9330C060
:101A4000A5E3B0E0E5E3F0E08081482F8B81282F0B
:101A500030E081E090E0022E02C0880F991F0A94C6
:101A6000E2F7842B8C931CC0A2E3B0E0E2E3F0E049
:101A70008081482F8B81282F30E081E090E0022E7A
:101A800002C0880F991F0A94E2F7842B8C9308C038
:101A900081E0898305C081E0898302C081E0898378
:101AA000898128960FB6F894DEBF0FBECDBFCF91C7
:101AB000DF910895DF93CF9300D000D00F92CDB780
:101AC000DEB78A836B8319828A81282F30E03D83B9
:101AD0002C838C819D8181309105D1F02C813D81B9
:101AE000223031052CF48C819D81009761F01FC05C
:101AF0002C813D812230310581F08C819D818330A4
:101B0000910581F014C0EBE3F0E08B81808311C07C
:101B1000E8E3F0E08B8180830CC0E5E3F0E08B81AB
:101B2000808307C0E2E3F0E08B81808302C081E024
:101B3000898389810F900F900F900F900F90CF9114
:101B4000DF910895DF93CF93CDB7DEB727970FB618
:101B5000F894DEBF0FBECDBF8A836B835D834C8359
:101B600019828C819D81009709F47BC08B8188301C
:101B700008F074C08A81282F30E03F832E834E8185
:101B80005F814130510559F18E819F8182309105ED
:101B900034F42E813F812115310569F05CC04E81FE
:101BA0005F814230510579F18E819F8183309105AB
:101BB00009F43DC050C0E9E3F0E08081282F30E017
:101BC0008B81882F90E0A90102C0559547958A9591
:101BD000E2F7CA018170EC81FD81808344C0E6E3B5
:101BE000F0E08081282F30E08B81882F90E0A901E0
:101BF00002C0559547958A95E2F7CA018170EC813C
:101C0000FD81808330C0E3E3F0E08081282F30E065
:101C10008B81882F90E0A90102C0559547958A9540
:101C2000E2F7CA018170EC81FD8180831CC0E0E392
:101C3000F0E08081282F30E08B81882F90E0A9018F
:101C400002C0559547958A95E2F7CA018170EC81EB
:101C5000FD81808308C081E0898305C081E089839C
:101C600002C082E08983898127960FB6F894DEBF8F
:101C70000FBECDBFCF91DF910895DF93CF9300D0FA
:101C800000D00F92CDB7DEB78A836B8319828B8128
:101C9000883008F072C08A81282F30E03D832C8381
:101CA0008C819D818130910549F12C813D812230CB
:101CB00031052CF48C819D81009761F05BC02C81F3
:101CC0003D812230310571F18C819D8183309105F8
:101CD000E9F150C0ABE3B0E0EBE3F0E08081482FE6
:101CE0008B81282F30E081E090E0022E02C0880F27
:101CF000991F0A94E2F784278C9341C0A8E3B0E0CF
:101D0000E8E3F0E08081482F8B81282F30E081E0EC
:101D100090E0022E02C0880F991F0A94E2F78427F0
:101D20008C932DC0A5E3B0E0E5E3F0E08081482F7F
:101D30008B81282F30E081E090E0022E02C0880FD6
:101D4000991F0A94E2F784278C9319C0A2E3B0E0AC
:101D5000E2E3F0E08081482F8B81282F30E081E0A2
:101D600090E0022E02C0880F991F0A94E2F78427A0
:101D70008C9305C081E0898302C081E089838981D9
:101D80000F900F900F900F900F90CF91DF910895CB
:101D9000DF93CF93CDB7DEB77894CF91DF910895DD
:101DA000DF93CF93CDB7DEB7F894CF91DF9108954D
:101DB000AF92BF92CF92DF92EF92FF920F931F9359
:101DC000DF93CF93CDB7DEB768970FB6F894DEBF39
:101DD0000FBECDBF69877A878B879C872D873E870B
:101DE0004F87588BE98AFA8A0B8B1C8BAD8ABE8A87
:101DF000CF8AD88E2DA13EA14FA158A589859A855D
:101E0000AB85BC8579018A01E81AF90A0A0B1B0B1C
:101E1000D801C70124E630E040E050E0BC01CD012C
:101E20000E94BE107B018C012D853E854F8558890F
:101E300089859A85AB85BC85281B390B4A0B5B0BC2
:101E4000C801B7010E94DD10DA01C9018D839E83AC
:101E5000AF83B8872D893E894F89588D89899A89A2
:101E6000AB89BC8979018A01E81AF90A0A0B1B0BB4
:101E7000D801C7012D813E814F815885BC01CD011C
:101E80000E94BE10DC01CB0124E630E040E050E0CF
:101E9000BC01CD010E94DD10DA01C9019C01AD0138
:101EA00089899A89AB89BC89820F931FA41FB51FAA
:101EB00089839A83AB83BC8389819A81AB81BC81FE
:101EC000BC01CD0168960FB6F894DEBF0FBECDBF42
:101ED000CF91DF911F910F91FF90EF90DF90CF9006
:101EE000BF90AF900895DF93CF93CDB7DEB7EAE30D
:101EF000F0E08CE08083E7E3F0E08FED8083E4E3C3
:101F0000F0E01082E1E3F0E01082EBE3F0E0108219
:101F1000E8E3F0E080E48083E5E3F0E01082E2E3D0
:101F2000F0E084E08083CF91DF910895DF93CF9339
:101F3000CDB7DEB7A3E5B0E0E3E5F0E080818064F3
:101F40008C93A3E5B0E0E3E5F0E0808188608C93BA
:101F5000A3E5B0E0E3E5F0E08081887F8C93A3E522
:101F6000B0E0E3E5F0E0808181608C93A3E5B0E030
:101F7000E3E5F0E080818F7C8C93A3E5B0E0E3E5BE
:101F8000F0E0808180628C93CF91DF910895DF93A0
:101F9000CF9300D00F92CDB7DEB79B838A8319828F
:101FA0008A819B81009739F08A819B81909382007E
:101FB0008093810002C082E0898389810F900F9015
:101FC0000F90CF91DF910895DF93CF9300D000D091
:101FD000CDB7DEB719821A821B821C82A3E5B0E05E
:101FE000E3E5F0E08081887F8C93A3E5B0E0E3E552
:101FF000F0E080818C930BC089819A81AB81BC8198
:102000000196A11DB11D89839A83AB83BC8389810D
:102010009A81AB81BC8181342DE0920723E0A20735
:1020200020E0B20748F3A3E5B0E0E3E5F0E080810B
:10203000887F8C93A3E5B0E0E3E5F0E080818160E8
:102040008C93E2E5F0E080810F900F900F900F905D
:10205000CF91DF9108951F920F920FB60F92112426
:102060002F933F934F935F936F937F938F939F93A0
:10207000AF93BF93EF93FF93DF93CF93CDB7DEB7CB
:102080008091810090918200009729F0E091810079
:10209000F09182000995CF91DF91FF91EF91BF916F
:1020A000AF919F918F917F916F915F914F913F91F0
:1020B0002F910F900FBE0F901F9018951F920F92A7
:1020C0000FB60F9211242F933F934F935F936F930B
:1020D0007F938F939F93AF93BF93EF93FF93DF9380
:1020E000CF93CDB7DEB780918100909182000097A9
:1020F00029F0E0918100F09182000995CF91DF9164
:10210000FF91EF91BF91AF919F918F917F916F91CF
:102110005F914F913F912F910F900FBE0F901F90A5
:102120001895DF93CF93CDB7DEB70E94730F0E944F
:10213000A3050E94960F0E94B80880E690E00E94D6
:10214000520923E830E080E0B9010E94D405ECE5B3
:10215000F0E08091830090918400808387E061E0CB
:102160000E947F0A8091830090918400CC01A0E0BE
:10217000B0E0BC01CD010E949009E3CF629FD00185
:10218000739FF001829FE00DF11D649FE00DF11D32
:10219000929FF00D839FF00D749FF00D659FF00DE1
:1021A0009927729FB00DE11DF91F639FB00DE11DCE
:1021B000F91FBD01CF011124089597FB092E0526B3
:1021C0000ED057FD04D014D00AD0001C38F450951E
:1021D0004095309521953F4F4F4F5F4F0895F6F74B
:1021E00090958095709561957F4F8F4F9F4F089583
:1021F000A1E21A2EAA1BBB1BFD010DC0AA1FBB1F0B
:10220000EE1FFF1FA217B307E407F50720F0A21B7C
:10221000B30BE40BF50B661F771F881F991F1A94E9
:1022200069F760957095809590959B01AC01BD0113
:10223000CF0108952F923F924F925F926F927F92BB
:102240008F929F92AF92BF92CF92DF92EF92FF92C6
:102250000F931F93CF93DF93CDB7DEB7CA1BDB0B72
:102260000FB6F894DEBF0FBECDBF09942A88398817
:1022700048885F846E847D848C849B84AA84B9841E
:10228000C884DF80EE80FD800C811B81AA81B9812A
:10229000CE0FD11D0FB6F894DEBF0FBECDBFED013E
:0622A0000895F894FFCF41
:1022A600436F6D706172652056616C7565203A00EA
:0822B600000000000000000020
:00000001FF
